DBCC execution completed. If DBCC printed error messages, contact your system administrator.

PAGE: (1:2)


BUFFER:


BUF @0x00000278ECABB400

bpage = 0x00000278BE496000          bhash = 0x0000000000000000          bpageno = (1:2)
bdbid = 7                           breferences = 1                     bcputicks = 0
bsampleCount = 0                    bUse1 = 46687                       bstat = 0x9
blog = 0x15ab215a                   bnext = 0x0000000000000000          bDirtyContext = 0x0000000000000000
bstat2 = 0x0

PAGE HEADER:


Page @0x00000278BE496000

m_pageId = (1:2)                    m_headerVersion = 1                 m_type = 8
m_typeFlagBits = 0x0                m_level = 0                         m_flagBits = 0x0
m_objId (AllocUnitId.idObj) = 99    m_indexId (AllocUnitId.idInd) = 0   Metadata: AllocUnitId = 6488064
Metadata: PartitionId = 0           Metadata: IndexId = 0               Metadata: ObjectId = 99
m_prevPage = (0:0)                  m_nextPage = (0:0)                  pminlen = 90
m_slotCnt = 2                       m_freeCnt = 6                       m_freeData = 8182
m_reservedCnt = 0                   m_lsn = (34:2808:7)                 m_xactReserved = 0
m_xdesId = (0:0)                    m_ghostRecCnt = 0                   m_tornBits = 185045724
DB Frag ID = 1

Allocation Status

GAM (1:2) = ALLOCATED               SGAM (1:3) = NOT ALLOCATED          PFS (1:1) = 0x44 ALLOCATED 100_PCT_FULL
DIFF (1:6) = CHANGED                ML (1:7) = NOT MIN_LOGGED

DATA:


Memory Dump @0x000000D9A8DFA000

000000D9A8DFA000:   01080000 00000000 00000000 00005a00 00000000  ..............Z.....
000000D9A8DFA014:   00000200 63000000 0600f61f 02000000 01000000  ....c.....ö.........
000000D9A8DFA028:   22000000 f80a0000 07000000 00000000 00000000  "...ø...............
000000D9A8DFA03C:   dc92070b 00000000 00000000 00000000 00000000  Ü..................
000000D9A8DFA050:   00000000 00000000 00000000 00000000 00005e00  ..................^.
000000D9A8DFA064:   00000000 00000000 00000000 00000000 00000000  ....................
000000D9A8DFA078:   00000000 00000000 00000000 00000000 00000000  ....................
000000D9A8DFA08C:   00000000 00000000 00000000 00000000 00000000  ....................
000000D9A8DFA0A0:   00000000 00000000 00000000 00000000 00000000  ....................
000000D9A8DFA0B4:   00000000 00000000 00000000 381f0000 0000e03f  ............8.....à?
000000D9A8DFA0C8:   f7003a3a c0ffffff ffffffff ffffffff ffffffff  ÷.::Àÿÿÿÿÿÿÿÿÿÿÿÿÿÿÿ
000000D9A8DFA0DC:   ffffffff ffffffff ffffffff ffffffff ffffffff  ÿÿÿÿÿÿÿÿÿÿÿÿÿÿÿÿÿÿÿÿ
000000D9A8DFA0F0:   ffffffff ffffffff ffffffff ffffffff ffffffff  ÿÿÿÿÿÿÿÿÿÿÿÿÿÿÿÿÿÿÿÿ
000000D9A8DFA104:   ffffffff ffffffff ffffffff ffffffff ffffffff  ÿÿÿÿÿÿÿÿÿÿÿÿÿÿÿÿÿÿÿÿ
000000D9A8DFA118:   ffffffff ffffffff ffffffff ffffffff ffffffff  ÿÿÿÿÿÿÿÿÿÿÿÿÿÿÿÿÿÿÿÿ
000000D9A8DFA12C:   ffffffff ffffffff ffffffff ffffffff ffffffff  ÿÿÿÿÿÿÿÿÿÿÿÿÿÿÿÿÿÿÿÿ
000000D9A8DFA140:   ffffffff ffffffff ffffffff ffffffff ffffffff  ÿÿÿÿÿÿÿÿÿÿÿÿÿÿÿÿÿÿÿÿ
000000D9A8DFA154:   ffffffff ffffffff ffffffff ffffffff ffffffff  ÿÿÿÿÿÿÿÿÿÿÿÿÿÿÿÿÿÿÿÿ
000000D9A8DFA168:   ffffffff ffffffff ffffffff ffffffff ffffffff  ÿÿÿÿÿÿÿÿÿÿÿÿÿÿÿÿÿÿÿÿ
000000D9A8DFA17C:   ffffffff ffffffff ffffffff ffffffff ffffffff  ÿÿÿÿÿÿÿÿÿÿÿÿÿÿÿÿÿÿÿÿ
000000D9A8DFA190:   ffffffff ffffffff ffffffff ffffffff ffffffff  ÿÿÿÿÿÿÿÿÿÿÿÿÿÿÿÿÿÿÿÿ
000000D9A8DFA1A4:   ffffffff ffffffff ffffffff ffffffff ffffffff  ÿÿÿÿÿÿÿÿÿÿÿÿÿÿÿÿÿÿÿÿ
000000D9A8DFA1B8:   ffffffff ffffffff ffffffff ffffffff ffffffff  ÿÿÿÿÿÿÿÿÿÿÿÿÿÿÿÿÿÿÿÿ
000000D9A8DFA1CC:   ffffffff ffffffff ffffffff ffffffff ffffffff  ÿÿÿÿÿÿÿÿÿÿÿÿÿÿÿÿÿÿÿÿ
000000D9A8DFA1E0:   ffffffff ffffffff ffffffff ffffffff ffffffff  ÿÿÿÿÿÿÿÿÿÿÿÿÿÿÿÿÿÿÿÿ
000000D9A8DFA1F4:   ffffffff ffffffff ffffffff ffffffff ffffffff  ÿÿÿÿÿÿÿÿÿÿÿÿÿÿÿÿÿÿÿÿ
000000D9A8DFA208:   ffffffff ffffffff ffffffff ffffffff ffffffff  ÿÿÿÿÿÿÿÿÿÿÿÿÿÿÿÿÿÿÿÿ
000000D9A8DFA21C:   ffffffff ffffffff ffffffff ffffffff ffffffff  ÿÿÿÿÿÿÿÿÿÿÿÿÿÿÿÿÿÿÿÿ
000000D9A8DFA230:   ffffffff ffffffff ffffffff ffffffff ffffffff  ÿÿÿÿÿÿÿÿÿÿÿÿÿÿÿÿÿÿÿÿ
000000D9A8DFA244:   ffffffff ffffffff ffffffff ffffffff ffffffff  ÿÿÿÿÿÿÿÿÿÿÿÿÿÿÿÿÿÿÿÿ
000000D9A8DFA258:   ffffffff ffffffff ffffffff ffffffff ffffffff  ÿÿÿÿÿÿÿÿÿÿÿÿÿÿÿÿÿÿÿÿ
000000D9A8DFA26C:   ffffffff ffffffff ffffffff ffffffff ffffffff  ÿÿÿÿÿÿÿÿÿÿÿÿÿÿÿÿÿÿÿÿ
000000D9A8DFA280:   ffffffff ffffffff ffffffff ffffffff ffffffff  ÿÿÿÿÿÿÿÿÿÿÿÿÿÿÿÿÿÿÿÿ
000000D9A8DFA294:   ffffffff ffffffff ffffffff ffffffff ffffffff  ÿÿÿÿÿÿÿÿÿÿÿÿÿÿÿÿÿÿÿÿ
000000D9A8DFA2A8:   ffffffff ffffffff ffffffff ffffffff ffffffff  ÿÿÿÿÿÿÿÿÿÿÿÿÿÿÿÿÿÿÿÿ
000000D9A8DFA2BC:   ffffffff ffffffff ffffffff ffffffff ffffffff  ÿÿÿÿÿÿÿÿÿÿÿÿÿÿÿÿÿÿÿÿ
000000D9A8DFA2D0:   ffffffff ffffffff ffffffff ffffffff ffffffff  ÿÿÿÿÿÿÿÿÿÿÿÿÿÿÿÿÿÿÿÿ
000000D9A8DFA2E4:   ffffffff ffffffff ffffffff ffffffff ffffffff  ÿÿÿÿÿÿÿÿÿÿÿÿÿÿÿÿÿÿÿÿ
000000D9A8DFA2F8:   ffffffff ffffffff ffffffff ffffffff ffffffff  ÿÿÿÿÿÿÿÿÿÿÿÿÿÿÿÿÿÿÿÿ
000000D9A8DFA30C:   ffffffff ffffffff ffffffff ffffffff ffffffff  ÿÿÿÿÿÿÿÿÿÿÿÿÿÿÿÿÿÿÿÿ
000000D9A8DFA320:   ffffffff ffffffff ffffffff ffffffff ffffffff  ÿÿÿÿÿÿÿÿÿÿÿÿÿÿÿÿÿÿÿÿ
000000D9A8DFA334:   ffffffff ffffffff ffffffff ffffffff ffffffff  ÿÿÿÿÿÿÿÿÿÿÿÿÿÿÿÿÿÿÿÿ
000000D9A8DFA348:   ffffffff ffffffff ffffffff ffffffff ffffffff  ÿÿÿÿÿÿÿÿÿÿÿÿÿÿÿÿÿÿÿÿ
000000D9A8DFA35C:   ffffffff ffffffff ffffffff ffffffff ffffffff  ÿÿÿÿÿÿÿÿÿÿÿÿÿÿÿÿÿÿÿÿ
000000D9A8DFA370:   ffffffff ffffffff ffffffff ffffffff ffffffff  ÿÿÿÿÿÿÿÿÿÿÿÿÿÿÿÿÿÿÿÿ
000000D9A8DFA384:   ffffffff ffffffff ffffffff ffffffff ffffffff  ÿÿÿÿÿÿÿÿÿÿÿÿÿÿÿÿÿÿÿÿ
000000D9A8DFA398:   ffffffff ffffffff ffffffff ffffffff ffffffff  ÿÿÿÿÿÿÿÿÿÿÿÿÿÿÿÿÿÿÿÿ
000000D9A8DFA3AC:   ffffffff ffffffff ffffffff ffffffff ffffffff  ÿÿÿÿÿÿÿÿÿÿÿÿÿÿÿÿÿÿÿÿ
000000D9A8DFA3C0:   ffffffff ffffffff ffffffff ffffffff ffffffff  ÿÿÿÿÿÿÿÿÿÿÿÿÿÿÿÿÿÿÿÿ
000000D9A8DFA3D4:   ffffffff ffffffff ffffffff ffffffff ffffffff  ÿÿÿÿÿÿÿÿÿÿÿÿÿÿÿÿÿÿÿÿ
000000D9A8DFA3E8:   ffffffff ffffffff ffffffff ffffffff ffffffff  ÿÿÿÿÿÿÿÿÿÿÿÿÿÿÿÿÿÿÿÿ
000000D9A8DFA3FC:   ffffffff ffffffff ffffffff ffffffff ffffffff  ÿÿÿÿÿÿÿÿÿÿÿÿÿÿÿÿÿÿÿÿ
000000D9A8DFA410:   ffffffff ffffffff ffffffff ffffffff ffffffff  ÿÿÿÿÿÿÿÿÿÿÿÿÿÿÿÿÿÿÿÿ
000000D9A8DFA424:   ffffffff ffffffff ffffffff ffffffff ffffffff  ÿÿÿÿÿÿÿÿÿÿÿÿÿÿÿÿÿÿÿÿ
000000D9A8DFA438:   ffffffff ffffffff ffffffff ffffffff ffffffff  ÿÿÿÿÿÿÿÿÿÿÿÿÿÿÿÿÿÿÿÿ
000000D9A8DFA44C:   ffffffff ffffffff ffffffff ffffffff ffffffff  ÿÿÿÿÿÿÿÿÿÿÿÿÿÿÿÿÿÿÿÿ
000000D9A8DFA460:   ffffffff ffffffff ffffffff ffffffff ffffffff  ÿÿÿÿÿÿÿÿÿÿÿÿÿÿÿÿÿÿÿÿ
000000D9A8DFA474:   ffffffff ffffffff ffffffff ffffffff ffffffff  ÿÿÿÿÿÿÿÿÿÿÿÿÿÿÿÿÿÿÿÿ
000000D9A8DFA488:   ffffffff ffffffff ffffffff ffffffff ffffffff  ÿÿÿÿÿÿÿÿÿÿÿÿÿÿÿÿÿÿÿÿ
000000D9A8DFA49C:   ffffffff ffffffff ffffffff ffffffff ffffffff  ÿÿÿÿÿÿÿÿÿÿÿÿÿÿÿÿÿÿÿÿ
000000D9A8DFA4B0:   ffffffff ffffffff ffffffff ffffffff ffffffff  ÿÿÿÿÿÿÿÿÿÿÿÿÿÿÿÿÿÿÿÿ
000000D9A8DFA4C4:   ffffffff ffffffff ffffffff ffffffff ffffffff  ÿÿÿÿÿÿÿÿÿÿÿÿÿÿÿÿÿÿÿÿ
000000D9A8DFA4D8:   ffffffff ffffffff ffffffff ffffffff ffffffff  ÿÿÿÿÿÿÿÿÿÿÿÿÿÿÿÿÿÿÿÿ
000000D9A8DFA4EC:   ffffffff ffffffff ffffffff ffffffff ffffffff  ÿÿÿÿÿÿÿÿÿÿÿÿÿÿÿÿÿÿÿÿ
000000D9A8DFA500:   ffffffff ffffffff ffffffff ffffffff ffffffff  ÿÿÿÿÿÿÿÿÿÿÿÿÿÿÿÿÿÿÿÿ
000000D9A8DFA514:   ffffffff ffffffff ffffffff ffffffff ffffffff  ÿÿÿÿÿÿÿÿÿÿÿÿÿÿÿÿÿÿÿÿ
000000D9A8DFA528:   ffffffff ffffffff ffffffff ffffffff ffffffff  ÿÿÿÿÿÿÿÿÿÿÿÿÿÿÿÿÿÿÿÿ
000000D9A8DFA53C:   ffffffff ffffffff ffffffff ffffffff ffffffff  ÿÿÿÿÿÿÿÿÿÿÿÿÿÿÿÿÿÿÿÿ
000000D9A8DFA550:   ffffffff ffffffff ffffffff ffffffff ffffffff  ÿÿÿÿÿÿÿÿÿÿÿÿÿÿÿÿÿÿÿÿ
000000D9A8DFA564:   ffffffff ffffffff ffffffff ffffffff ffffffff  ÿÿÿÿÿÿÿÿÿÿÿÿÿÿÿÿÿÿÿÿ
000000D9A8DFA578:   ffffffff ffffffff ffffffff ffffffff ffffffff  ÿÿÿÿÿÿÿÿÿÿÿÿÿÿÿÿÿÿÿÿ
000000D9A8DFA58C:   ffffffff ffffffff ffffffff ffffffff ffffffff  ÿÿÿÿÿÿÿÿÿÿÿÿÿÿÿÿÿÿÿÿ
000000D9A8DFA5A0:   ffffffff ffffffff ffffffff ffffffff ffffffff  ÿÿÿÿÿÿÿÿÿÿÿÿÿÿÿÿÿÿÿÿ
000000D9A8DFA5B4:   ffffffff ffffffff ffffffff ffffffff ffffffff  ÿÿÿÿÿÿÿÿÿÿÿÿÿÿÿÿÿÿÿÿ
000000D9A8DFA5C8:   ffffffff ffffffff ffffffff ffffffff ffffffff  ÿÿÿÿÿÿÿÿÿÿÿÿÿÿÿÿÿÿÿÿ
000000D9A8DFA5DC:   ffffffff ffffffff ffffffff ffffffff ffffffff  ÿÿÿÿÿÿÿÿÿÿÿÿÿÿÿÿÿÿÿÿ
000000D9A8DFA5F0:   ffffffff ffffffff ffffffff ffffffff ffffffff  ÿÿÿÿÿÿÿÿÿÿÿÿÿÿÿÿÿÿÿÿ
000000D9A8DFA604:   ffffffff ffffffff ffffffff ffffffff ffffffff  ÿÿÿÿÿÿÿÿÿÿÿÿÿÿÿÿÿÿÿÿ
000000D9A8DFA618:   ffffffff ffffffff ffffffff ffffffff ffffffff  ÿÿÿÿÿÿÿÿÿÿÿÿÿÿÿÿÿÿÿÿ
000000D9A8DFA62C:   ffffffff ffffffff ffffffff ffffffff ffffffff  ÿÿÿÿÿÿÿÿÿÿÿÿÿÿÿÿÿÿÿÿ
000000D9A8DFA640:   ffffffff ffffffff ffffffff ffffffff ffffffff  ÿÿÿÿÿÿÿÿÿÿÿÿÿÿÿÿÿÿÿÿ
000000D9A8DFA654:   ffffffff ffffffff ffffffff ffffffff ffffffff  ÿÿÿÿÿÿÿÿÿÿÿÿÿÿÿÿÿÿÿÿ
000000D9A8DFA668:   ffffffff ffffffff ffffffff ffffffff ffffffff  ÿÿÿÿÿÿÿÿÿÿÿÿÿÿÿÿÿÿÿÿ
000000D9A8DFA67C:   ffffffff ffffffff ffffffff ffffffff ffffffff  ÿÿÿÿÿÿÿÿÿÿÿÿÿÿÿÿÿÿÿÿ
000000D9A8DFA690:   ffffffff ffffffff ffffffff ffffffff ffffffff  ÿÿÿÿÿÿÿÿÿÿÿÿÿÿÿÿÿÿÿÿ
000000D9A8DFA6A4:   ffffffff ffffffff ffffffff ffffffff ffffffff  ÿÿÿÿÿÿÿÿÿÿÿÿÿÿÿÿÿÿÿÿ
000000D9A8DFA6B8:   ffffffff ffffffff ffffffff ffffffff ffffffff  ÿÿÿÿÿÿÿÿÿÿÿÿÿÿÿÿÿÿÿÿ
000000D9A8DFA6CC:   ffffffff ffffffff ffffffff ffffffff ffffffff  ÿÿÿÿÿÿÿÿÿÿÿÿÿÿÿÿÿÿÿÿ
000000D9A8DFA6E0:   ffffffff ffffffff ffffffff ffffffff ffffffff  ÿÿÿÿÿÿÿÿÿÿÿÿÿÿÿÿÿÿÿÿ
000000D9A8DFA6F4:   ffffffff ffffffff ffffffff ffffffff ffffffff  ÿÿÿÿÿÿÿÿÿÿÿÿÿÿÿÿÿÿÿÿ
000000D9A8DFA708:   ffffffff ffffffff ffffffff ffffffff ffffffff  ÿÿÿÿÿÿÿÿÿÿÿÿÿÿÿÿÿÿÿÿ
000000D9A8DFA71C:   ffffffff ffffffff ffffffff ffffffff ffffffff  ÿÿÿÿÿÿÿÿÿÿÿÿÿÿÿÿÿÿÿÿ
000000D9A8DFA730:   ffffffff ffffffff ffffffff ffffffff ffffffff  ÿÿÿÿÿÿÿÿÿÿÿÿÿÿÿÿÿÿÿÿ
000000D9A8DFA744:   ffffffff ffffffff ffffffff ffffffff ffffffff  ÿÿÿÿÿÿÿÿÿÿÿÿÿÿÿÿÿÿÿÿ
000000D9A8DFA758:   ffffffff ffffffff ffffffff ffffffff ffffffff  ÿÿÿÿÿÿÿÿÿÿÿÿÿÿÿÿÿÿÿÿ
000000D9A8DFA76C:   ffffffff ffffffff ffffffff ffffffff ffffffff  ÿÿÿÿÿÿÿÿÿÿÿÿÿÿÿÿÿÿÿÿ
000000D9A8DFA780:   ffffffff ffffffff ffffffff ffffffff ffffffff  ÿÿÿÿÿÿÿÿÿÿÿÿÿÿÿÿÿÿÿÿ
000000D9A8DFA794:   ffffffff ffffffff ffffffff ffffffff ffffffff  ÿÿÿÿÿÿÿÿÿÿÿÿÿÿÿÿÿÿÿÿ
000000D9A8DFA7A8:   ffffffff ffffffff ffffffff ffffffff ffffffff  ÿÿÿÿÿÿÿÿÿÿÿÿÿÿÿÿÿÿÿÿ
000000D9A8DFA7BC:   ffffffff ffffffff ffffffff ffffffff ffffffff  ÿÿÿÿÿÿÿÿÿÿÿÿÿÿÿÿÿÿÿÿ
000000D9A8DFA7D0:   ffffffff ffffffff ffffffff ffffffff ffffffff  ÿÿÿÿÿÿÿÿÿÿÿÿÿÿÿÿÿÿÿÿ
000000D9A8DFA7E4:   ffffffff ffffffff ffffffff ffffffff ffffffff  ÿÿÿÿÿÿÿÿÿÿÿÿÿÿÿÿÿÿÿÿ
000000D9A8DFA7F8:   ffffffff ffffffff ffffffff ffffffff ffffffff  ÿÿÿÿÿÿÿÿÿÿÿÿÿÿÿÿÿÿÿÿ
000000D9A8DFA80C:   ffffffff ffffffff ffffffff ffffffff ffffffff  ÿÿÿÿÿÿÿÿÿÿÿÿÿÿÿÿÿÿÿÿ
000000D9A8DFA820:   ffffffff ffffffff ffffffff ffffffff ffffffff  ÿÿÿÿÿÿÿÿÿÿÿÿÿÿÿÿÿÿÿÿ
000000D9A8DFA834:   ffffffff ffffffff ffffffff ffffffff ffffffff  ÿÿÿÿÿÿÿÿÿÿÿÿÿÿÿÿÿÿÿÿ
000000D9A8DFA848:   ffffffff ffffffff ffffffff ffffffff ffffffff  ÿÿÿÿÿÿÿÿÿÿÿÿÿÿÿÿÿÿÿÿ
000000D9A8DFA85C:   ffffffff ffffffff ffffffff ffffffff ffffffff  ÿÿÿÿÿÿÿÿÿÿÿÿÿÿÿÿÿÿÿÿ
000000D9A8DFA870:   ffffffff ffffffff ffffffff ffffffff ffffffff  ÿÿÿÿÿÿÿÿÿÿÿÿÿÿÿÿÿÿÿÿ
000000D9A8DFA884:   ffffffff ffffffff ffffffff ffffffff ffffffff  ÿÿÿÿÿÿÿÿÿÿÿÿÿÿÿÿÿÿÿÿ
000000D9A8DFA898:   ffffffff ffffffff ffffffff ffffffff ffffffff  ÿÿÿÿÿÿÿÿÿÿÿÿÿÿÿÿÿÿÿÿ
000000D9A8DFA8AC:   ffffffff ffffffff ffffffff ffffffff ffffffff  ÿÿÿÿÿÿÿÿÿÿÿÿÿÿÿÿÿÿÿÿ
000000D9A8DFA8C0:   ffffffff ffffffff ffffffff ffffffff ffffffff  ÿÿÿÿÿÿÿÿÿÿÿÿÿÿÿÿÿÿÿÿ
000000D9A8DFA8D4:   ffffffff ffffffff ffffffff ffffffff ffffffff  ÿÿÿÿÿÿÿÿÿÿÿÿÿÿÿÿÿÿÿÿ
000000D9A8DFA8E8:   ffffffff ffffffff ffffffff ffffffff ffffffff  ÿÿÿÿÿÿÿÿÿÿÿÿÿÿÿÿÿÿÿÿ
000000D9A8DFA8FC:   ffffffff ffffffff ffffffff ffffffff ffffffff  ÿÿÿÿÿÿÿÿÿÿÿÿÿÿÿÿÿÿÿÿ
000000D9A8DFA910:   ffffffff ffffffff ffffffff ffffffff ffffffff  ÿÿÿÿÿÿÿÿÿÿÿÿÿÿÿÿÿÿÿÿ
000000D9A8DFA924:   ffffffff ffffffff ffffffff ffffffff ffffffff  ÿÿÿÿÿÿÿÿÿÿÿÿÿÿÿÿÿÿÿÿ
000000D9A8DFA938:   ffffffff ffffffff ffffffff ffffffff ffffffff  ÿÿÿÿÿÿÿÿÿÿÿÿÿÿÿÿÿÿÿÿ
000000D9A8DFA94C:   ffffffff ffffffff ffffffff ffffffff ffffffff  ÿÿÿÿÿÿÿÿÿÿÿÿÿÿÿÿÿÿÿÿ
000000D9A8DFA960:   ffffffff ffffffff ffffffff ffffffff ffffffff  ÿÿÿÿÿÿÿÿÿÿÿÿÿÿÿÿÿÿÿÿ
000000D9A8DFA974:   ffffffff ffffffff ffffffff ffffffff ffffffff  ÿÿÿÿÿÿÿÿÿÿÿÿÿÿÿÿÿÿÿÿ
000000D9A8DFA988:   ffffffff ffffffff ffffffff ffffffff ffffffff  ÿÿÿÿÿÿÿÿÿÿÿÿÿÿÿÿÿÿÿÿ
000000D9A8DFA99C:   ffffffff ffffffff ffffffff ffffffff ffffffff  ÿÿÿÿÿÿÿÿÿÿÿÿÿÿÿÿÿÿÿÿ
000000D9A8DFA9B0:   ffffffff ffffffff ffffffff ffffffff ffffffff  ÿÿÿÿÿÿÿÿÿÿÿÿÿÿÿÿÿÿÿÿ
000000D9A8DFA9C4:   ffffffff ffffffff ffffffff ffffffff ffffffff  ÿÿÿÿÿÿÿÿÿÿÿÿÿÿÿÿÿÿÿÿ
000000D9A8DFA9D8:   ffffffff ffffffff ffffffff ffffffff ffffffff  ÿÿÿÿÿÿÿÿÿÿÿÿÿÿÿÿÿÿÿÿ
000000D9A8DFA9EC:   ffffffff ffffffff ffffffff ffffffff ffffffff  ÿÿÿÿÿÿÿÿÿÿÿÿÿÿÿÿÿÿÿÿ
000000D9A8DFAA00:   ffffffff ffffffff ffffffff ffffffff ffffffff  ÿÿÿÿÿÿÿÿÿÿÿÿÿÿÿÿÿÿÿÿ
000000D9A8DFAA14:   ffffffff ffffffff ffffffff ffffffff ffffffff  ÿÿÿÿÿÿÿÿÿÿÿÿÿÿÿÿÿÿÿÿ
000000D9A8DFAA28:   ffffffff ffffffff ffffffff ffffffff ffffffff  ÿÿÿÿÿÿÿÿÿÿÿÿÿÿÿÿÿÿÿÿ
000000D9A8DFAA3C:   ffffffff ffffffff ffffffff ffffffff ffffffff  ÿÿÿÿÿÿÿÿÿÿÿÿÿÿÿÿÿÿÿÿ
000000D9A8DFAA50:   ffffffff ffffffff ffffffff ffffffff ffffffff  ÿÿÿÿÿÿÿÿÿÿÿÿÿÿÿÿÿÿÿÿ
000000D9A8DFAA64:   ffffffff ffffffff ffffffff ffffffff ffffffff  ÿÿÿÿÿÿÿÿÿÿÿÿÿÿÿÿÿÿÿÿ
000000D9A8DFAA78:   ffffffff ffffffff ffffffff ffffffff ffffffff  ÿÿÿÿÿÿÿÿÿÿÿÿÿÿÿÿÿÿÿÿ
000000D9A8DFAA8C:   ffffffff ffffffff ffffffff ffffffff ffffffff  ÿÿÿÿÿÿÿÿÿÿÿÿÿÿÿÿÿÿÿÿ
000000D9A8DFAAA0:   ffffffff ffffffff ffffffff ffffffff ffffffff  ÿÿÿÿÿÿÿÿÿÿÿÿÿÿÿÿÿÿÿÿ
000000D9A8DFAAB4:   ffffffff ffffffff ffffffff ffffffff ffffffff  ÿÿÿÿÿÿÿÿÿÿÿÿÿÿÿÿÿÿÿÿ
000000D9A8DFAAC8:   ffffffff ffffffff ffffffff ffffffff ffffffff  ÿÿÿÿÿÿÿÿÿÿÿÿÿÿÿÿÿÿÿÿ
000000D9A8DFAADC:   ffffffff ffffffff ffffffff ffffffff ffffffff  ÿÿÿÿÿÿÿÿÿÿÿÿÿÿÿÿÿÿÿÿ
000000D9A8DFAAF0:   ffffffff ffffffff ffffffff ffffffff ffffffff  ÿÿÿÿÿÿÿÿÿÿÿÿÿÿÿÿÿÿÿÿ
000000D9A8DFAB04:   ffffffff ffffffff ffffffff ffffffff ffffffff  ÿÿÿÿÿÿÿÿÿÿÿÿÿÿÿÿÿÿÿÿ
000000D9A8DFAB18:   ffffffff ffffffff ffffffff ffffffff ffffffff  ÿÿÿÿÿÿÿÿÿÿÿÿÿÿÿÿÿÿÿÿ
000000D9A8DFAB2C:   ffffffff ffffffff ffffffff ffffffff ffffffff  ÿÿÿÿÿÿÿÿÿÿÿÿÿÿÿÿÿÿÿÿ
000000D9A8DFAB40:   ffffffff ffffffff ffffffff ffffffff ffffffff  ÿÿÿÿÿÿÿÿÿÿÿÿÿÿÿÿÿÿÿÿ
000000D9A8DFAB54:   ffffffff ffffffff ffffffff ffffffff ffffffff  ÿÿÿÿÿÿÿÿÿÿÿÿÿÿÿÿÿÿÿÿ
000000D9A8DFAB68:   ffffffff ffffffff ffffffff ffffffff ffffffff  ÿÿÿÿÿÿÿÿÿÿÿÿÿÿÿÿÿÿÿÿ
000000D9A8DFAB7C:   ffffffff ffffffff ffffffff ffffffff ffffffff  ÿÿÿÿÿÿÿÿÿÿÿÿÿÿÿÿÿÿÿÿ
000000D9A8DFAB90:   ffffffff ffffffff ffffffff ffffffff ffffffff  ÿÿÿÿÿÿÿÿÿÿÿÿÿÿÿÿÿÿÿÿ
000000D9A8DFABA4:   ffffffff ffffffff ffffffff ffffffff ffffffff  ÿÿÿÿÿÿÿÿÿÿÿÿÿÿÿÿÿÿÿÿ
000000D9A8DFABB8:   ffffffff ffffffff ffffffff ffffffff ffffffff  ÿÿÿÿÿÿÿÿÿÿÿÿÿÿÿÿÿÿÿÿ
000000D9A8DFABCC:   ffffffff ffffffff ffffffff ffffffff ffffffff  ÿÿÿÿÿÿÿÿÿÿÿÿÿÿÿÿÿÿÿÿ
000000D9A8DFABE0:   ffffffff ffffffff ffffffff ffffffff ffffffff  ÿÿÿÿÿÿÿÿÿÿÿÿÿÿÿÿÿÿÿÿ
000000D9A8DFABF4:   ffffffff ffffffff ffffffff ffffffff ffffffff  ÿÿÿÿÿÿÿÿÿÿÿÿÿÿÿÿÿÿÿÿ
000000D9A8DFAC08:   ffffffff ffffffff ffffffff ffffffff ffffffff  ÿÿÿÿÿÿÿÿÿÿÿÿÿÿÿÿÿÿÿÿ
000000D9A8DFAC1C:   ffffffff ffffffff ffffffff ffffffff ffffffff  ÿÿÿÿÿÿÿÿÿÿÿÿÿÿÿÿÿÿÿÿ
000000D9A8DFAC30:   ffffffff ffffffff ffffffff ffffffff ffffffff  ÿÿÿÿÿÿÿÿÿÿÿÿÿÿÿÿÿÿÿÿ
000000D9A8DFAC44:   ffffffff ffffffff ffffffff ffffffff ffffffff  ÿÿÿÿÿÿÿÿÿÿÿÿÿÿÿÿÿÿÿÿ
000000D9A8DFAC58:   ffffffff ffffffff ffffffff ffffffff ffffffff  ÿÿÿÿÿÿÿÿÿÿÿÿÿÿÿÿÿÿÿÿ
000000D9A8DFAC6C:   ffffffff ffffffff ffffffff ffffffff ffffffff  ÿÿÿÿÿÿÿÿÿÿÿÿÿÿÿÿÿÿÿÿ
000000D9A8DFAC80:   ffffffff ffffffff ffffffff ffffffff ffffffff  ÿÿÿÿÿÿÿÿÿÿÿÿÿÿÿÿÿÿÿÿ
000000D9A8DFAC94:   ffffffff ffffffff ffffffff ffffffff ffffffff  ÿÿÿÿÿÿÿÿÿÿÿÿÿÿÿÿÿÿÿÿ
000000D9A8DFACA8:   ffffffff ffffffff ffffffff ffffffff ffffffff  ÿÿÿÿÿÿÿÿÿÿÿÿÿÿÿÿÿÿÿÿ
000000D9A8DFACBC:   ffffffff ffffffff ffffffff ffffffff ffffffff  ÿÿÿÿÿÿÿÿÿÿÿÿÿÿÿÿÿÿÿÿ
000000D9A8DFACD0:   ffffffff ffffffff ffffffff ffffffff ffffffff  ÿÿÿÿÿÿÿÿÿÿÿÿÿÿÿÿÿÿÿÿ
000000D9A8DFACE4:   ffffffff ffffffff ffffffff ffffffff ffffffff  ÿÿÿÿÿÿÿÿÿÿÿÿÿÿÿÿÿÿÿÿ
000000D9A8DFACF8:   ffffffff ffffffff ffffffff ffffffff ffffffff  ÿÿÿÿÿÿÿÿÿÿÿÿÿÿÿÿÿÿÿÿ
000000D9A8DFAD0C:   ffffffff ffffffff ffffffff ffffffff ffffffff  ÿÿÿÿÿÿÿÿÿÿÿÿÿÿÿÿÿÿÿÿ
000000D9A8DFAD20:   ffffffff ffffffff ffffffff ffffffff ffffffff  ÿÿÿÿÿÿÿÿÿÿÿÿÿÿÿÿÿÿÿÿ
000000D9A8DFAD34:   ffffffff ffffffff ffffffff ffffffff ffffffff  ÿÿÿÿÿÿÿÿÿÿÿÿÿÿÿÿÿÿÿÿ
000000D9A8DFAD48:   ffffffff ffffffff ffffffff ffffffff ffffffff  ÿÿÿÿÿÿÿÿÿÿÿÿÿÿÿÿÿÿÿÿ
000000D9A8DFAD5C:   ffffffff ffffffff ffffffff ffffffff ffffffff  ÿÿÿÿÿÿÿÿÿÿÿÿÿÿÿÿÿÿÿÿ
000000D9A8DFAD70:   ffffffff ffffffff ffffffff ffffffff ffffffff  ÿÿÿÿÿÿÿÿÿÿÿÿÿÿÿÿÿÿÿÿ
000000D9A8DFAD84:   ffffffff ffffffff ffffffff ffffffff ffffffff  ÿÿÿÿÿÿÿÿÿÿÿÿÿÿÿÿÿÿÿÿ
000000D9A8DFAD98:   ffffffff ffffffff ffffffff ffffffff ffffffff  ÿÿÿÿÿÿÿÿÿÿÿÿÿÿÿÿÿÿÿÿ
000000D9A8DFADAC:   ffffffff ffffffff ffffffff ffffffff ffffffff  ÿÿÿÿÿÿÿÿÿÿÿÿÿÿÿÿÿÿÿÿ
000000D9A8DFADC0:   ffffffff ffffffff ffffffff ffffffff ffffffff  ÿÿÿÿÿÿÿÿÿÿÿÿÿÿÿÿÿÿÿÿ
000000D9A8DFADD4:   ffffffff ffffffff ffffffff ffffffff ffffffff  ÿÿÿÿÿÿÿÿÿÿÿÿÿÿÿÿÿÿÿÿ
000000D9A8DFADE8:   ffffffff ffffffff ffffffff ffffffff ffffffff  ÿÿÿÿÿÿÿÿÿÿÿÿÿÿÿÿÿÿÿÿ
000000D9A8DFADFC:   ffffffff ffffffff ffffffff ffffffff ffffffff  ÿÿÿÿÿÿÿÿÿÿÿÿÿÿÿÿÿÿÿÿ
000000D9A8DFAE10:   ffffffff ffffffff ffffffff ffffffff ffffffff  ÿÿÿÿÿÿÿÿÿÿÿÿÿÿÿÿÿÿÿÿ
000000D9A8DFAE24:   ffffffff ffffffff ffffffff ffffffff ffffffff  ÿÿÿÿÿÿÿÿÿÿÿÿÿÿÿÿÿÿÿÿ
000000D9A8DFAE38:   ffffffff ffffffff ffffffff ffffffff ffffffff  ÿÿÿÿÿÿÿÿÿÿÿÿÿÿÿÿÿÿÿÿ
000000D9A8DFAE4C:   ffffffff ffffffff ffffffff ffffffff ffffffff  ÿÿÿÿÿÿÿÿÿÿÿÿÿÿÿÿÿÿÿÿ
000000D9A8DFAE60:   ffffffff ffffffff ffffffff ffffffff ffffffff  ÿÿÿÿÿÿÿÿÿÿÿÿÿÿÿÿÿÿÿÿ
000000D9A8DFAE74:   ffffffff ffffffff ffffffff ffffffff ffffffff  ÿÿÿÿÿÿÿÿÿÿÿÿÿÿÿÿÿÿÿÿ
000000D9A8DFAE88:   ffffffff ffffffff ffffffff ffffffff ffffffff  ÿÿÿÿÿÿÿÿÿÿÿÿÿÿÿÿÿÿÿÿ
000000D9A8DFAE9C:   ffffffff ffffffff ffffffff ffffffff ffffffff  ÿÿÿÿÿÿÿÿÿÿÿÿÿÿÿÿÿÿÿÿ
000000D9A8DFAEB0:   ffffffff ffffffff ffffffff ffffffff ffffffff  ÿÿÿÿÿÿÿÿÿÿÿÿÿÿÿÿÿÿÿÿ
000000D9A8DFAEC4:   ffffffff ffffffff ffffffff ffffffff ffffffff  ÿÿÿÿÿÿÿÿÿÿÿÿÿÿÿÿÿÿÿÿ
000000D9A8DFAED8:   ffffffff ffffffff ffffffff ffffffff ffffffff  ÿÿÿÿÿÿÿÿÿÿÿÿÿÿÿÿÿÿÿÿ
000000D9A8DFAEEC:   ffffffff ffffffff ffffffff ffffffff ffffffff  ÿÿÿÿÿÿÿÿÿÿÿÿÿÿÿÿÿÿÿÿ
000000D9A8DFAF00:   ffffffff ffffffff ffffffff ffffffff ffffffff  ÿÿÿÿÿÿÿÿÿÿÿÿÿÿÿÿÿÿÿÿ
000000D9A8DFAF14:   ffffffff ffffffff ffffffff ffffffff ffffffff  ÿÿÿÿÿÿÿÿÿÿÿÿÿÿÿÿÿÿÿÿ
000000D9A8DFAF28:   ffffffff ffffffff ffffffff ffffffff ffffffff  ÿÿÿÿÿÿÿÿÿÿÿÿÿÿÿÿÿÿÿÿ
000000D9A8DFAF3C:   ffffffff ffffffff ffffffff ffffffff ffffffff  ÿÿÿÿÿÿÿÿÿÿÿÿÿÿÿÿÿÿÿÿ
000000D9A8DFAF50:   ffffffff ffffffff ffffffff ffffffff ffffffff  ÿÿÿÿÿÿÿÿÿÿÿÿÿÿÿÿÿÿÿÿ
000000D9A8DFAF64:   ffffffff ffffffff ffffffff ffffffff ffffffff  ÿÿÿÿÿÿÿÿÿÿÿÿÿÿÿÿÿÿÿÿ
000000D9A8DFAF78:   ffffffff ffffffff ffffffff ffffffff ffffffff  ÿÿÿÿÿÿÿÿÿÿÿÿÿÿÿÿÿÿÿÿ
000000D9A8DFAF8C:   ffffffff ffffffff ffffffff ffffffff ffffffff  ÿÿÿÿÿÿÿÿÿÿÿÿÿÿÿÿÿÿÿÿ
000000D9A8DFAFA0:   ffffffff ffffffff ffffffff ffffffff ffffffff  ÿÿÿÿÿÿÿÿÿÿÿÿÿÿÿÿÿÿÿÿ
000000D9A8DFAFB4:   ffffffff ffffffff ffffffff ffffffff ffffffff  ÿÿÿÿÿÿÿÿÿÿÿÿÿÿÿÿÿÿÿÿ
000000D9A8DFAFC8:   ffffffff ffffffff ffffffff ffffffff ffffffff  ÿÿÿÿÿÿÿÿÿÿÿÿÿÿÿÿÿÿÿÿ
000000D9A8DFAFDC:   ffffffff ffffffff ffffffff ffffffff ffffffff  ÿÿÿÿÿÿÿÿÿÿÿÿÿÿÿÿÿÿÿÿ
000000D9A8DFAFF0:   ffffffff ffffffff ffffffff ffffffff ffffffff  ÿÿÿÿÿÿÿÿÿÿÿÿÿÿÿÿÿÿÿÿ
000000D9A8DFB004:   ffffffff ffffffff ffffffff ffffffff ffffffff  ÿÿÿÿÿÿÿÿÿÿÿÿÿÿÿÿÿÿÿÿ
000000D9A8DFB018:   ffffffff ffffffff ffffffff ffffffff ffffffff  ÿÿÿÿÿÿÿÿÿÿÿÿÿÿÿÿÿÿÿÿ
000000D9A8DFB02C:   ffffffff ffffffff ffffffff ffffffff ffffffff  ÿÿÿÿÿÿÿÿÿÿÿÿÿÿÿÿÿÿÿÿ
000000D9A8DFB040:   ffffffff ffffffff ffffffff ffffffff ffffffff  ÿÿÿÿÿÿÿÿÿÿÿÿÿÿÿÿÿÿÿÿ
000000D9A8DFB054:   ffffffff ffffffff ffffffff ffffffff ffffffff  ÿÿÿÿÿÿÿÿÿÿÿÿÿÿÿÿÿÿÿÿ
000000D9A8DFB068:   ffffffff ffffffff ffffffff ffffffff ffffffff  ÿÿÿÿÿÿÿÿÿÿÿÿÿÿÿÿÿÿÿÿ
000000D9A8DFB07C:   ffffffff ffffffff ffffffff ffffffff ffffffff  ÿÿÿÿÿÿÿÿÿÿÿÿÿÿÿÿÿÿÿÿ
000000D9A8DFB090:   ffffffff ffffffff ffffffff ffffffff ffffffff  ÿÿÿÿÿÿÿÿÿÿÿÿÿÿÿÿÿÿÿÿ
000000D9A8DFB0A4:   ffffffff ffffffff ffffffff ffffffff ffffffff  ÿÿÿÿÿÿÿÿÿÿÿÿÿÿÿÿÿÿÿÿ
000000D9A8DFB0B8:   ffffffff ffffffff ffffffff ffffffff ffffffff  ÿÿÿÿÿÿÿÿÿÿÿÿÿÿÿÿÿÿÿÿ
000000D9A8DFB0CC:   ffffffff ffffffff ffffffff ffffffff ffffffff  ÿÿÿÿÿÿÿÿÿÿÿÿÿÿÿÿÿÿÿÿ
000000D9A8DFB0E0:   ffffffff ffffffff ffffffff ffffffff ffffffff  ÿÿÿÿÿÿÿÿÿÿÿÿÿÿÿÿÿÿÿÿ
000000D9A8DFB0F4:   ffffffff ffffffff ffffffff ffffffff ffffffff  ÿÿÿÿÿÿÿÿÿÿÿÿÿÿÿÿÿÿÿÿ
000000D9A8DFB108:   ffffffff ffffffff ffffffff ffffffff ffffffff  ÿÿÿÿÿÿÿÿÿÿÿÿÿÿÿÿÿÿÿÿ
000000D9A8DFB11C:   ffffffff ffffffff ffffffff ffffffff ffffffff  ÿÿÿÿÿÿÿÿÿÿÿÿÿÿÿÿÿÿÿÿ
000000D9A8DFB130:   ffffffff ffffffff ffffffff ffffffff ffffffff  ÿÿÿÿÿÿÿÿÿÿÿÿÿÿÿÿÿÿÿÿ
000000D9A8DFB144:   ffffffff ffffffff ffffffff ffffffff ffffffff  ÿÿÿÿÿÿÿÿÿÿÿÿÿÿÿÿÿÿÿÿ
000000D9A8DFB158:   ffffffff ffffffff ffffffff ffffffff ffffffff  ÿÿÿÿÿÿÿÿÿÿÿÿÿÿÿÿÿÿÿÿ
000000D9A8DFB16C:   ffffffff ffffffff ffffffff ffffffff ffffffff  ÿÿÿÿÿÿÿÿÿÿÿÿÿÿÿÿÿÿÿÿ
000000D9A8DFB180:   ffffffff ffffffff ffffffff ffffffff ffffffff  ÿÿÿÿÿÿÿÿÿÿÿÿÿÿÿÿÿÿÿÿ
000000D9A8DFB194:   ffffffff ffffffff ffffffff ffffffff ffffffff  ÿÿÿÿÿÿÿÿÿÿÿÿÿÿÿÿÿÿÿÿ
000000D9A8DFB1A8:   ffffffff ffffffff ffffffff ffffffff ffffffff  ÿÿÿÿÿÿÿÿÿÿÿÿÿÿÿÿÿÿÿÿ
000000D9A8DFB1BC:   ffffffff ffffffff ffffffff ffffffff ffffffff  ÿÿÿÿÿÿÿÿÿÿÿÿÿÿÿÿÿÿÿÿ
000000D9A8DFB1D0:   ffffffff ffffffff ffffffff ffffffff ffffffff  ÿÿÿÿÿÿÿÿÿÿÿÿÿÿÿÿÿÿÿÿ
000000D9A8DFB1E4:   ffffffff ffffffff ffffffff ffffffff ffffffff  ÿÿÿÿÿÿÿÿÿÿÿÿÿÿÿÿÿÿÿÿ
000000D9A8DFB1F8:   ffffffff ffffffff ffffffff ffffffff ffffffff  ÿÿÿÿÿÿÿÿÿÿÿÿÿÿÿÿÿÿÿÿ
000000D9A8DFB20C:   ffffffff ffffffff ffffffff ffffffff ffffffff  ÿÿÿÿÿÿÿÿÿÿÿÿÿÿÿÿÿÿÿÿ
000000D9A8DFB220:   ffffffff ffffffff ffffffff ffffffff ffffffff  ÿÿÿÿÿÿÿÿÿÿÿÿÿÿÿÿÿÿÿÿ
000000D9A8DFB234:   ffffffff ffffffff ffffffff ffffffff ffffffff  ÿÿÿÿÿÿÿÿÿÿÿÿÿÿÿÿÿÿÿÿ
000000D9A8DFB248:   ffffffff ffffffff ffffffff ffffffff ffffffff  ÿÿÿÿÿÿÿÿÿÿÿÿÿÿÿÿÿÿÿÿ
000000D9A8DFB25C:   ffffffff ffffffff ffffffff ffffffff ffffffff  ÿÿÿÿÿÿÿÿÿÿÿÿÿÿÿÿÿÿÿÿ
000000D9A8DFB270:   ffffffff ffffffff ffffffff ffffffff ffffffff  ÿÿÿÿÿÿÿÿÿÿÿÿÿÿÿÿÿÿÿÿ
000000D9A8DFB284:   ffffffff ffffffff ffffffff ffffffff ffffffff  ÿÿÿÿÿÿÿÿÿÿÿÿÿÿÿÿÿÿÿÿ
000000D9A8DFB298:   ffffffff ffffffff ffffffff ffffffff ffffffff  ÿÿÿÿÿÿÿÿÿÿÿÿÿÿÿÿÿÿÿÿ
000000D9A8DFB2AC:   ffffffff ffffffff ffffffff ffffffff ffffffff  ÿÿÿÿÿÿÿÿÿÿÿÿÿÿÿÿÿÿÿÿ
000000D9A8DFB2C0:   ffffffff ffffffff ffffffff ffffffff ffffffff  ÿÿÿÿÿÿÿÿÿÿÿÿÿÿÿÿÿÿÿÿ
000000D9A8DFB2D4:   ffffffff ffffffff ffffffff ffffffff ffffffff  ÿÿÿÿÿÿÿÿÿÿÿÿÿÿÿÿÿÿÿÿ
000000D9A8DFB2E8:   ffffffff ffffffff ffffffff ffffffff ffffffff  ÿÿÿÿÿÿÿÿÿÿÿÿÿÿÿÿÿÿÿÿ
000000D9A8DFB2FC:   ffffffff ffffffff ffffffff ffffffff ffffffff  ÿÿÿÿÿÿÿÿÿÿÿÿÿÿÿÿÿÿÿÿ
000000D9A8DFB310:   ffffffff ffffffff ffffffff ffffffff ffffffff  ÿÿÿÿÿÿÿÿÿÿÿÿÿÿÿÿÿÿÿÿ
000000D9A8DFB324:   ffffffff ffffffff ffffffff ffffffff ffffffff  ÿÿÿÿÿÿÿÿÿÿÿÿÿÿÿÿÿÿÿÿ
000000D9A8DFB338:   ffffffff ffffffff ffffffff ffffffff ffffffff  ÿÿÿÿÿÿÿÿÿÿÿÿÿÿÿÿÿÿÿÿ
000000D9A8DFB34C:   ffffffff ffffffff ffffffff ffffffff ffffffff  ÿÿÿÿÿÿÿÿÿÿÿÿÿÿÿÿÿÿÿÿ
000000D9A8DFB360:   ffffffff ffffffff ffffffff ffffffff ffffffff  ÿÿÿÿÿÿÿÿÿÿÿÿÿÿÿÿÿÿÿÿ
000000D9A8DFB374:   ffffffff ffffffff ffffffff ffffffff ffffffff  ÿÿÿÿÿÿÿÿÿÿÿÿÿÿÿÿÿÿÿÿ
000000D9A8DFB388:   ffffffff ffffffff ffffffff ffffffff ffffffff  ÿÿÿÿÿÿÿÿÿÿÿÿÿÿÿÿÿÿÿÿ
000000D9A8DFB39C:   ffffffff ffffffff ffffffff ffffffff ffffffff  ÿÿÿÿÿÿÿÿÿÿÿÿÿÿÿÿÿÿÿÿ
000000D9A8DFB3B0:   ffffffff ffffffff ffffffff ffffffff ffffffff  ÿÿÿÿÿÿÿÿÿÿÿÿÿÿÿÿÿÿÿÿ
000000D9A8DFB3C4:   ffffffff ffffffff ffffffff ffffffff ffffffff  ÿÿÿÿÿÿÿÿÿÿÿÿÿÿÿÿÿÿÿÿ
000000D9A8DFB3D8:   ffffffff ffffffff ffffffff ffffffff ffffffff  ÿÿÿÿÿÿÿÿÿÿÿÿÿÿÿÿÿÿÿÿ
000000D9A8DFB3EC:   ffffffff ffffffff ffffffff ffffffff ffffffff  ÿÿÿÿÿÿÿÿÿÿÿÿÿÿÿÿÿÿÿÿ
000000D9A8DFB400:   ffffffff ffffffff ffffffff ffffffff ffffffff  ÿÿÿÿÿÿÿÿÿÿÿÿÿÿÿÿÿÿÿÿ
000000D9A8DFB414:   ffffffff ffffffff ffffffff ffffffff ffffffff  ÿÿÿÿÿÿÿÿÿÿÿÿÿÿÿÿÿÿÿÿ
000000D9A8DFB428:   ffffffff ffffffff ffffffff ffffffff ffffffff  ÿÿÿÿÿÿÿÿÿÿÿÿÿÿÿÿÿÿÿÿ
000000D9A8DFB43C:   ffffffff ffffffff ffffffff ffffffff ffffffff  ÿÿÿÿÿÿÿÿÿÿÿÿÿÿÿÿÿÿÿÿ
000000D9A8DFB450:   ffffffff ffffffff ffffffff ffffffff ffffffff  ÿÿÿÿÿÿÿÿÿÿÿÿÿÿÿÿÿÿÿÿ
000000D9A8DFB464:   ffffffff ffffffff ffffffff ffffffff ffffffff  ÿÿÿÿÿÿÿÿÿÿÿÿÿÿÿÿÿÿÿÿ
000000D9A8DFB478:   ffffffff ffffffff ffffffff ffffffff ffffffff  ÿÿÿÿÿÿÿÿÿÿÿÿÿÿÿÿÿÿÿÿ
000000D9A8DFB48C:   ffffffff ffffffff ffffffff ffffffff ffffffff  ÿÿÿÿÿÿÿÿÿÿÿÿÿÿÿÿÿÿÿÿ
000000D9A8DFB4A0:   ffffffff ffffffff ffffffff ffffffff ffffffff  ÿÿÿÿÿÿÿÿÿÿÿÿÿÿÿÿÿÿÿÿ
000000D9A8DFB4B4:   ffffffff ffffffff ffffffff ffffffff ffffffff  ÿÿÿÿÿÿÿÿÿÿÿÿÿÿÿÿÿÿÿÿ
000000D9A8DFB4C8:   ffffffff ffffffff ffffffff ffffffff ffffffff  ÿÿÿÿÿÿÿÿÿÿÿÿÿÿÿÿÿÿÿÿ
000000D9A8DFB4DC:   ffffffff ffffffff ffffffff ffffffff ffffffff  ÿÿÿÿÿÿÿÿÿÿÿÿÿÿÿÿÿÿÿÿ
000000D9A8DFB4F0:   ffffffff ffffffff ffffffff ffffffff ffffffff  ÿÿÿÿÿÿÿÿÿÿÿÿÿÿÿÿÿÿÿÿ
000000D9A8DFB504:   ffffffff ffffffff ffffffff ffffffff ffffffff  ÿÿÿÿÿÿÿÿÿÿÿÿÿÿÿÿÿÿÿÿ
000000D9A8DFB518:   ffffffff ffffffff ffffffff ffffffff ffffffff  ÿÿÿÿÿÿÿÿÿÿÿÿÿÿÿÿÿÿÿÿ
000000D9A8DFB52C:   ffffffff ffffffff ffffffff ffffffff ffffffff  ÿÿÿÿÿÿÿÿÿÿÿÿÿÿÿÿÿÿÿÿ
000000D9A8DFB540:   ffffffff ffffffff ffffffff ffffffff ffffffff  ÿÿÿÿÿÿÿÿÿÿÿÿÿÿÿÿÿÿÿÿ
000000D9A8DFB554:   ffffffff ffffffff ffffffff ffffffff ffffffff  ÿÿÿÿÿÿÿÿÿÿÿÿÿÿÿÿÿÿÿÿ
000000D9A8DFB568:   ffffffff ffffffff ffffffff ffffffff ffffffff  ÿÿÿÿÿÿÿÿÿÿÿÿÿÿÿÿÿÿÿÿ
000000D9A8DFB57C:   ffffffff ffffffff ffffffff ffffffff ffffffff  ÿÿÿÿÿÿÿÿÿÿÿÿÿÿÿÿÿÿÿÿ
000000D9A8DFB590:   ffffffff ffffffff ffffffff ffffffff ffffffff  ÿÿÿÿÿÿÿÿÿÿÿÿÿÿÿÿÿÿÿÿ
000000D9A8DFB5A4:   ffffffff ffffffff ffffffff ffffffff ffffffff  ÿÿÿÿÿÿÿÿÿÿÿÿÿÿÿÿÿÿÿÿ
000000D9A8DFB5B8:   ffffffff ffffffff ffffffff ffffffff ffffffff  ÿÿÿÿÿÿÿÿÿÿÿÿÿÿÿÿÿÿÿÿ
000000D9A8DFB5CC:   ffffffff ffffffff ffffffff ffffffff ffffffff  ÿÿÿÿÿÿÿÿÿÿÿÿÿÿÿÿÿÿÿÿ
000000D9A8DFB5E0:   ffffffff ffffffff ffffffff ffffffff ffffffff  ÿÿÿÿÿÿÿÿÿÿÿÿÿÿÿÿÿÿÿÿ
000000D9A8DFB5F4:   ffffffff ffffffff ffffffff ffffffff ffffffff  ÿÿÿÿÿÿÿÿÿÿÿÿÿÿÿÿÿÿÿÿ
000000D9A8DFB608:   ffffffff ffffffff ffffffff ffffffff ffffffff  ÿÿÿÿÿÿÿÿÿÿÿÿÿÿÿÿÿÿÿÿ
000000D9A8DFB61C:   ffffffff ffffffff ffffffff ffffffff ffffffff  ÿÿÿÿÿÿÿÿÿÿÿÿÿÿÿÿÿÿÿÿ
000000D9A8DFB630:   ffffffff ffffffff ffffffff ffffffff ffffffff  ÿÿÿÿÿÿÿÿÿÿÿÿÿÿÿÿÿÿÿÿ
000000D9A8DFB644:   ffffffff ffffffff ffffffff ffffffff ffffffff  ÿÿÿÿÿÿÿÿÿÿÿÿÿÿÿÿÿÿÿÿ
000000D9A8DFB658:   ffffffff ffffffff ffffffff ffffffff ffffffff  ÿÿÿÿÿÿÿÿÿÿÿÿÿÿÿÿÿÿÿÿ
000000D9A8DFB66C:   ffffffff ffffffff ffffffff ffffffff ffffffff  ÿÿÿÿÿÿÿÿÿÿÿÿÿÿÿÿÿÿÿÿ
000000D9A8DFB680:   ffffffff ffffffff ffffffff ffffffff ffffffff  ÿÿÿÿÿÿÿÿÿÿÿÿÿÿÿÿÿÿÿÿ
000000D9A8DFB694:   ffffffff ffffffff ffffffff ffffffff ffffffff  ÿÿÿÿÿÿÿÿÿÿÿÿÿÿÿÿÿÿÿÿ
000000D9A8DFB6A8:   ffffffff ffffffff ffffffff ffffffff ffffffff  ÿÿÿÿÿÿÿÿÿÿÿÿÿÿÿÿÿÿÿÿ
000000D9A8DFB6BC:   ffffffff ffffffff ffffffff ffffffff ffffffff  ÿÿÿÿÿÿÿÿÿÿÿÿÿÿÿÿÿÿÿÿ
000000D9A8DFB6D0:   ffffffff ffffffff ffffffff ffffffff ffffffff  ÿÿÿÿÿÿÿÿÿÿÿÿÿÿÿÿÿÿÿÿ
000000D9A8DFB6E4:   ffffffff ffffffff ffffffff ffffffff ffffffff  ÿÿÿÿÿÿÿÿÿÿÿÿÿÿÿÿÿÿÿÿ
000000D9A8DFB6F8:   ffffffff ffffffff ffffffff ffffffff ffffffff  ÿÿÿÿÿÿÿÿÿÿÿÿÿÿÿÿÿÿÿÿ
000000D9A8DFB70C:   ffffffff ffffffff ffffffff ffffffff ffffffff  ÿÿÿÿÿÿÿÿÿÿÿÿÿÿÿÿÿÿÿÿ
000000D9A8DFB720:   ffffffff ffffffff ffffffff ffffffff ffffffff  ÿÿÿÿÿÿÿÿÿÿÿÿÿÿÿÿÿÿÿÿ
000000D9A8DFB734:   ffffffff ffffffff ffffffff ffffffff ffffffff  ÿÿÿÿÿÿÿÿÿÿÿÿÿÿÿÿÿÿÿÿ
000000D9A8DFB748:   ffffffff ffffffff ffffffff ffffffff ffffffff  ÿÿÿÿÿÿÿÿÿÿÿÿÿÿÿÿÿÿÿÿ
000000D9A8DFB75C:   ffffffff ffffffff ffffffff ffffffff ffffffff  ÿÿÿÿÿÿÿÿÿÿÿÿÿÿÿÿÿÿÿÿ
000000D9A8DFB770:   ffffffff ffffffff ffffffff ffffffff ffffffff  ÿÿÿÿÿÿÿÿÿÿÿÿÿÿÿÿÿÿÿÿ
000000D9A8DFB784:   ffffffff ffffffff ffffffff ffffffff ffffffff  ÿÿÿÿÿÿÿÿÿÿÿÿÿÿÿÿÿÿÿÿ
000000D9A8DFB798:   ffffffff ffffffff ffffffff ffffffff ffffffff  ÿÿÿÿÿÿÿÿÿÿÿÿÿÿÿÿÿÿÿÿ
000000D9A8DFB7AC:   ffffffff ffffffff ffffffff ffffffff ffffffff  ÿÿÿÿÿÿÿÿÿÿÿÿÿÿÿÿÿÿÿÿ
000000D9A8DFB7C0:   ffffffff ffffffff ffffffff ffffffff ffffffff  ÿÿÿÿÿÿÿÿÿÿÿÿÿÿÿÿÿÿÿÿ
000000D9A8DFB7D4:   ffffffff ffffffff ffffffff ffffffff ffffffff  ÿÿÿÿÿÿÿÿÿÿÿÿÿÿÿÿÿÿÿÿ
000000D9A8DFB7E8:   ffffffff ffffffff ffffffff ffffffff ffffffff  ÿÿÿÿÿÿÿÿÿÿÿÿÿÿÿÿÿÿÿÿ
000000D9A8DFB7FC:   ffffffff ffffffff ffffffff ffffffff ffffffff  ÿÿÿÿÿÿÿÿÿÿÿÿÿÿÿÿÿÿÿÿ
000000D9A8DFB810:   ffffffff ffffffff ffffffff ffffffff ffffffff  ÿÿÿÿÿÿÿÿÿÿÿÿÿÿÿÿÿÿÿÿ
000000D9A8DFB824:   ffffffff ffffffff ffffffff ffffffff ffffffff  ÿÿÿÿÿÿÿÿÿÿÿÿÿÿÿÿÿÿÿÿ
000000D9A8DFB838:   ffffffff ffffffff ffffffff ffffffff ffffffff  ÿÿÿÿÿÿÿÿÿÿÿÿÿÿÿÿÿÿÿÿ
000000D9A8DFB84C:   ffffffff ffffffff ffffffff ffffffff ffffffff  ÿÿÿÿÿÿÿÿÿÿÿÿÿÿÿÿÿÿÿÿ
000000D9A8DFB860:   ffffffff ffffffff ffffffff ffffffff ffffffff  ÿÿÿÿÿÿÿÿÿÿÿÿÿÿÿÿÿÿÿÿ
000000D9A8DFB874:   ffffffff ffffffff ffffffff ffffffff ffffffff  ÿÿÿÿÿÿÿÿÿÿÿÿÿÿÿÿÿÿÿÿ
000000D9A8DFB888:   ffffffff ffffffff ffffffff ffffffff ffffffff  ÿÿÿÿÿÿÿÿÿÿÿÿÿÿÿÿÿÿÿÿ
000000D9A8DFB89C:   ffffffff ffffffff ffffffff ffffffff ffffffff  ÿÿÿÿÿÿÿÿÿÿÿÿÿÿÿÿÿÿÿÿ
000000D9A8DFB8B0:   ffffffff ffffffff ffffffff ffffffff ffffffff  ÿÿÿÿÿÿÿÿÿÿÿÿÿÿÿÿÿÿÿÿ
000000D9A8DFB8C4:   ffffffff ffffffff ffffffff ffffffff ffffffff  ÿÿÿÿÿÿÿÿÿÿÿÿÿÿÿÿÿÿÿÿ
000000D9A8DFB8D8:   ffffffff ffffffff ffffffff ffffffff ffffffff  ÿÿÿÿÿÿÿÿÿÿÿÿÿÿÿÿÿÿÿÿ
000000D9A8DFB8EC:   ffffffff ffffffff ffffffff ffffffff ffffffff  ÿÿÿÿÿÿÿÿÿÿÿÿÿÿÿÿÿÿÿÿ
000000D9A8DFB900:   ffffffff ffffffff ffffffff ffffffff ffffffff  ÿÿÿÿÿÿÿÿÿÿÿÿÿÿÿÿÿÿÿÿ
000000D9A8DFB914:   ffffffff ffffffff ffffffff ffffffff ffffffff  ÿÿÿÿÿÿÿÿÿÿÿÿÿÿÿÿÿÿÿÿ
000000D9A8DFB928:   ffffffff ffffffff ffffffff ffffffff ffffffff  ÿÿÿÿÿÿÿÿÿÿÿÿÿÿÿÿÿÿÿÿ
000000D9A8DFB93C:   ffffffff ffffffff ffffffff ffffffff ffffffff  ÿÿÿÿÿÿÿÿÿÿÿÿÿÿÿÿÿÿÿÿ
000000D9A8DFB950:   ffffffff ffffffff ffffffff ffffffff ffffffff  ÿÿÿÿÿÿÿÿÿÿÿÿÿÿÿÿÿÿÿÿ
000000D9A8DFB964:   ffffffff ffffffff ffffffff ffffffff ffffffff  ÿÿÿÿÿÿÿÿÿÿÿÿÿÿÿÿÿÿÿÿ
000000D9A8DFB978:   ffffffff ffffffff ffffffff ffffffff ffffffff  ÿÿÿÿÿÿÿÿÿÿÿÿÿÿÿÿÿÿÿÿ
000000D9A8DFB98C:   ffffffff ffffffff ffffffff ffffffff ffffffff  ÿÿÿÿÿÿÿÿÿÿÿÿÿÿÿÿÿÿÿÿ
000000D9A8DFB9A0:   ffffffff ffffffff ffffffff ffffffff ffffffff  ÿÿÿÿÿÿÿÿÿÿÿÿÿÿÿÿÿÿÿÿ
000000D9A8DFB9B4:   ffffffff ffffffff ffffffff ffffffff ffffffff  ÿÿÿÿÿÿÿÿÿÿÿÿÿÿÿÿÿÿÿÿ
000000D9A8DFB9C8:   ffffffff ffffffff ffffffff ffffffff ffffffff  ÿÿÿÿÿÿÿÿÿÿÿÿÿÿÿÿÿÿÿÿ
000000D9A8DFB9DC:   ffffffff ffffffff ffffffff ffffffff ffffffff  ÿÿÿÿÿÿÿÿÿÿÿÿÿÿÿÿÿÿÿÿ
000000D9A8DFB9F0:   ffffffff ffffffff ffffffff ffffffff ffffffff  ÿÿÿÿÿÿÿÿÿÿÿÿÿÿÿÿÿÿÿÿ
000000D9A8DFBA04:   ffffffff ffffffff ffffffff ffffffff ffffffff  ÿÿÿÿÿÿÿÿÿÿÿÿÿÿÿÿÿÿÿÿ
000000D9A8DFBA18:   ffffffff ffffffff ffffffff ffffffff ffffffff  ÿÿÿÿÿÿÿÿÿÿÿÿÿÿÿÿÿÿÿÿ
000000D9A8DFBA2C:   ffffffff ffffffff ffffffff ffffffff ffffffff  ÿÿÿÿÿÿÿÿÿÿÿÿÿÿÿÿÿÿÿÿ
000000D9A8DFBA40:   ffffffff ffffffff ffffffff ffffffff ffffffff  ÿÿÿÿÿÿÿÿÿÿÿÿÿÿÿÿÿÿÿÿ
000000D9A8DFBA54:   ffffffff ffffffff ffffffff ffffffff ffffffff  ÿÿÿÿÿÿÿÿÿÿÿÿÿÿÿÿÿÿÿÿ
000000D9A8DFBA68:   ffffffff ffffffff ffffffff ffffffff ffffffff  ÿÿÿÿÿÿÿÿÿÿÿÿÿÿÿÿÿÿÿÿ
000000D9A8DFBA7C:   ffffffff ffffffff ffffffff ffffffff ffffffff  ÿÿÿÿÿÿÿÿÿÿÿÿÿÿÿÿÿÿÿÿ
000000D9A8DFBA90:   ffffffff ffffffff ffffffff ffffffff ffffffff  ÿÿÿÿÿÿÿÿÿÿÿÿÿÿÿÿÿÿÿÿ
000000D9A8DFBAA4:   ffffffff ffffffff ffffffff ffffffff ffffffff  ÿÿÿÿÿÿÿÿÿÿÿÿÿÿÿÿÿÿÿÿ
000000D9A8DFBAB8:   ffffffff ffffffff ffffffff ffffffff ffffffff  ÿÿÿÿÿÿÿÿÿÿÿÿÿÿÿÿÿÿÿÿ
000000D9A8DFBACC:   ffffffff ffffffff ffffffff ffffffff ffffffff  ÿÿÿÿÿÿÿÿÿÿÿÿÿÿÿÿÿÿÿÿ
000000D9A8DFBAE0:   ffffffff ffffffff ffffffff ffffffff ffffffff  ÿÿÿÿÿÿÿÿÿÿÿÿÿÿÿÿÿÿÿÿ
000000D9A8DFBAF4:   ffffffff ffffffff ffffffff ffffffff ffffffff  ÿÿÿÿÿÿÿÿÿÿÿÿÿÿÿÿÿÿÿÿ
000000D9A8DFBB08:   ffffffff ffffffff ffffffff ffffffff ffffffff  ÿÿÿÿÿÿÿÿÿÿÿÿÿÿÿÿÿÿÿÿ
000000D9A8DFBB1C:   ffffffff ffffffff ffffffff ffffffff ffffffff  ÿÿÿÿÿÿÿÿÿÿÿÿÿÿÿÿÿÿÿÿ
000000D9A8DFBB30:   ffffffff ffffffff ffffffff ffffffff ffffffff  ÿÿÿÿÿÿÿÿÿÿÿÿÿÿÿÿÿÿÿÿ
000000D9A8DFBB44:   ffffffff ffffffff ffffffff ffffffff ffffffff  ÿÿÿÿÿÿÿÿÿÿÿÿÿÿÿÿÿÿÿÿ
000000D9A8DFBB58:   ffffffff ffffffff ffffffff ffffffff ffffffff  ÿÿÿÿÿÿÿÿÿÿÿÿÿÿÿÿÿÿÿÿ
000000D9A8DFBB6C:   ffffffff ffffffff ffffffff ffffffff ffffffff  ÿÿÿÿÿÿÿÿÿÿÿÿÿÿÿÿÿÿÿÿ
000000D9A8DFBB80:   ffffffff ffffffff ffffffff ffffffff ffffffff  ÿÿÿÿÿÿÿÿÿÿÿÿÿÿÿÿÿÿÿÿ
000000D9A8DFBB94:   ffffffff ffffffff ffffffff ffffffff ffffffff  ÿÿÿÿÿÿÿÿÿÿÿÿÿÿÿÿÿÿÿÿ
000000D9A8DFBBA8:   ffffffff ffffffff ffffffff ffffffff ffffffff  ÿÿÿÿÿÿÿÿÿÿÿÿÿÿÿÿÿÿÿÿ
000000D9A8DFBBBC:   ffffffff ffffffff ffffffff ffffffff ffffffff  ÿÿÿÿÿÿÿÿÿÿÿÿÿÿÿÿÿÿÿÿ
000000D9A8DFBBD0:   ffffffff ffffffff ffffffff ffffffff ffffffff  ÿÿÿÿÿÿÿÿÿÿÿÿÿÿÿÿÿÿÿÿ
000000D9A8DFBBE4:   ffffffff ffffffff ffffffff ffffffff ffffffff  ÿÿÿÿÿÿÿÿÿÿÿÿÿÿÿÿÿÿÿÿ
000000D9A8DFBBF8:   ffffffff ffffffff ffffffff ffffffff ffffffff  ÿÿÿÿÿÿÿÿÿÿÿÿÿÿÿÿÿÿÿÿ
000000D9A8DFBC0C:   ffffffff ffffffff ffffffff ffffffff ffffffff  ÿÿÿÿÿÿÿÿÿÿÿÿÿÿÿÿÿÿÿÿ
000000D9A8DFBC20:   ffffffff ffffffff ffffffff ffffffff ffffffff  ÿÿÿÿÿÿÿÿÿÿÿÿÿÿÿÿÿÿÿÿ
000000D9A8DFBC34:   ffffffff ffffffff ffffffff ffffffff ffffffff  ÿÿÿÿÿÿÿÿÿÿÿÿÿÿÿÿÿÿÿÿ
000000D9A8DFBC48:   ffffffff ffffffff ffffffff ffffffff ffffffff  ÿÿÿÿÿÿÿÿÿÿÿÿÿÿÿÿÿÿÿÿ
000000D9A8DFBC5C:   ffffffff ffffffff ffffffff ffffffff ffffffff  ÿÿÿÿÿÿÿÿÿÿÿÿÿÿÿÿÿÿÿÿ
000000D9A8DFBC70:   ffffffff ffffffff ffffffff ffffffff ffffffff  ÿÿÿÿÿÿÿÿÿÿÿÿÿÿÿÿÿÿÿÿ
000000D9A8DFBC84:   ffffffff ffffffff ffffffff ffffffff ffffffff  ÿÿÿÿÿÿÿÿÿÿÿÿÿÿÿÿÿÿÿÿ
000000D9A8DFBC98:   ffffffff ffffffff ffffffff ffffffff ffffffff  ÿÿÿÿÿÿÿÿÿÿÿÿÿÿÿÿÿÿÿÿ
000000D9A8DFBCAC:   ffffffff ffffffff ffffffff ffffffff ffffffff  ÿÿÿÿÿÿÿÿÿÿÿÿÿÿÿÿÿÿÿÿ
000000D9A8DFBCC0:   ffffffff ffffffff ffffffff ffffffff ffffffff  ÿÿÿÿÿÿÿÿÿÿÿÿÿÿÿÿÿÿÿÿ
000000D9A8DFBCD4:   ffffffff ffffffff ffffffff ffffffff ffffffff  ÿÿÿÿÿÿÿÿÿÿÿÿÿÿÿÿÿÿÿÿ
000000D9A8DFBCE8:   ffffffff ffffffff ffffffff ffffffff ffffffff  ÿÿÿÿÿÿÿÿÿÿÿÿÿÿÿÿÿÿÿÿ
000000D9A8DFBCFC:   ffffffff ffffffff ffffffff ffffffff ffffffff  ÿÿÿÿÿÿÿÿÿÿÿÿÿÿÿÿÿÿÿÿ
000000D9A8DFBD10:   ffffffff ffffffff ffffffff ffffffff ffffffff  ÿÿÿÿÿÿÿÿÿÿÿÿÿÿÿÿÿÿÿÿ
000000D9A8DFBD24:   ffffffff ffffffff ffffffff ffffffff ffffffff  ÿÿÿÿÿÿÿÿÿÿÿÿÿÿÿÿÿÿÿÿ
000000D9A8DFBD38:   ffffffff ffffffff ffffffff ffffffff ffffffff  ÿÿÿÿÿÿÿÿÿÿÿÿÿÿÿÿÿÿÿÿ
000000D9A8DFBD4C:   ffffffff ffffffff ffffffff ffffffff ffffffff  ÿÿÿÿÿÿÿÿÿÿÿÿÿÿÿÿÿÿÿÿ
000000D9A8DFBD60:   ffffffff ffffffff ffffffff ffffffff ffffffff  ÿÿÿÿÿÿÿÿÿÿÿÿÿÿÿÿÿÿÿÿ
000000D9A8DFBD74:   ffffffff ffffffff ffffffff ffffffff ffffffff  ÿÿÿÿÿÿÿÿÿÿÿÿÿÿÿÿÿÿÿÿ
000000D9A8DFBD88:   ffffffff ffffffff ffffffff ffffffff ffffffff  ÿÿÿÿÿÿÿÿÿÿÿÿÿÿÿÿÿÿÿÿ
000000D9A8DFBD9C:   ffffffff ffffffff ffffffff ffffffff ffffffff  ÿÿÿÿÿÿÿÿÿÿÿÿÿÿÿÿÿÿÿÿ
000000D9A8DFBDB0:   ffffffff ffffffff ffffffff ffffffff ffffffff  ÿÿÿÿÿÿÿÿÿÿÿÿÿÿÿÿÿÿÿÿ
000000D9A8DFBDC4:   ffffffff ffffffff ffffffff ffffffff ffffffff  ÿÿÿÿÿÿÿÿÿÿÿÿÿÿÿÿÿÿÿÿ
000000D9A8DFBDD8:   ffffffff ffffffff ffffffff ffffffff ffffffff  ÿÿÿÿÿÿÿÿÿÿÿÿÿÿÿÿÿÿÿÿ
000000D9A8DFBDEC:   ffffffff ffffffff ffffffff ffffffff ffffffff  ÿÿÿÿÿÿÿÿÿÿÿÿÿÿÿÿÿÿÿÿ
000000D9A8DFBE00:   ffffffff ffffffff ffffffff ffffffff ffffffff  ÿÿÿÿÿÿÿÿÿÿÿÿÿÿÿÿÿÿÿÿ
000000D9A8DFBE14:   ffffffff ffffffff ffffffff ffffffff ffffffff  ÿÿÿÿÿÿÿÿÿÿÿÿÿÿÿÿÿÿÿÿ
000000D9A8DFBE28:   ffffffff ffffffff ffffffff ffffffff ffffffff  ÿÿÿÿÿÿÿÿÿÿÿÿÿÿÿÿÿÿÿÿ
000000D9A8DFBE3C:   ffffffff ffffffff ffffffff ffffffff ffffffff  ÿÿÿÿÿÿÿÿÿÿÿÿÿÿÿÿÿÿÿÿ
000000D9A8DFBE50:   ffffffff ffffffff ffffffff ffffffff ffffffff  ÿÿÿÿÿÿÿÿÿÿÿÿÿÿÿÿÿÿÿÿ
000000D9A8DFBE64:   ffffffff ffffffff ffffffff ffffffff ffffffff  ÿÿÿÿÿÿÿÿÿÿÿÿÿÿÿÿÿÿÿÿ
000000D9A8DFBE78:   ffffffff ffffffff ffffffff ffffffff ffffffff  ÿÿÿÿÿÿÿÿÿÿÿÿÿÿÿÿÿÿÿÿ
000000D9A8DFBE8C:   ffffffff ffffffff ffffffff ffffffff ffffffff  ÿÿÿÿÿÿÿÿÿÿÿÿÿÿÿÿÿÿÿÿ
000000D9A8DFBEA0:   ffffffff ffffffff ffffffff ffffffff ffffffff  ÿÿÿÿÿÿÿÿÿÿÿÿÿÿÿÿÿÿÿÿ
000000D9A8DFBEB4:   ffffffff ffffffff ffffffff ffffffff ffffffff  ÿÿÿÿÿÿÿÿÿÿÿÿÿÿÿÿÿÿÿÿ
000000D9A8DFBEC8:   ffffffff ffffffff ffffffff ffffffff ffffffff  ÿÿÿÿÿÿÿÿÿÿÿÿÿÿÿÿÿÿÿÿ
000000D9A8DFBEDC:   ffffffff ffffffff ffffffff ffffffff ffffffff  ÿÿÿÿÿÿÿÿÿÿÿÿÿÿÿÿÿÿÿÿ
000000D9A8DFBEF0:   ffffffff ffffffff ffffffff ffffffff ffffffff  ÿÿÿÿÿÿÿÿÿÿÿÿÿÿÿÿÿÿÿÿ
000000D9A8DFBF04:   ffffffff ffffffff ffffffff ffffffff ffffffff  ÿÿÿÿÿÿÿÿÿÿÿÿÿÿÿÿÿÿÿÿ
000000D9A8DFBF18:   ffffffff ffffffff ffffffff ffffffff ffffffff  ÿÿÿÿÿÿÿÿÿÿÿÿÿÿÿÿÿÿÿÿ
000000D9A8DFBF2C:   ffffffff ffffffff ffffffff ffffffff ffffffff  ÿÿÿÿÿÿÿÿÿÿÿÿÿÿÿÿÿÿÿÿ
000000D9A8DFBF40:   ffffffff ffffffff ffffffff ffffffff ffffffff  ÿÿÿÿÿÿÿÿÿÿÿÿÿÿÿÿÿÿÿÿ
000000D9A8DFBF54:   ffffffff ffffffff ffffffff ffffffff ffffffff  ÿÿÿÿÿÿÿÿÿÿÿÿÿÿÿÿÿÿÿÿ
000000D9A8DFBF68:   ffffffff ffffffff ffffffff ffffffff ffffffff  ÿÿÿÿÿÿÿÿÿÿÿÿÿÿÿÿÿÿÿÿ
000000D9A8DFBF7C:   ffffffff ffffffff ffffffff ffffffff ffffffff  ÿÿÿÿÿÿÿÿÿÿÿÿÿÿÿÿÿÿÿÿ
000000D9A8DFBF90:   ffffffff ffffffff ffffffff ffffffff ffffffff  ÿÿÿÿÿÿÿÿÿÿÿÿÿÿÿÿÿÿÿÿ
000000D9A8DFBFA4:   ffffffff ffffffff ffffffff ffffffff ffffffff  ÿÿÿÿÿÿÿÿÿÿÿÿÿÿÿÿÿÿÿÿ
000000D9A8DFBFB8:   ffffffff ffffffff ffffffff ffffffff ffffffff  ÿÿÿÿÿÿÿÿÿÿÿÿÿÿÿÿÿÿÿÿ
000000D9A8DFBFCC:   ffffffff ffffffff ffffffff ffffffff ffffffff  ÿÿÿÿÿÿÿÿÿÿÿÿÿÿÿÿÿÿÿÿ
000000D9A8DFBFE0:   ffffffff ffffffff ffffffff ffffffff ffffffff  ÿÿÿÿÿÿÿÿÿÿÿÿÿÿÿÿÿÿÿÿ
000000D9A8DFBFF4:   ffff0000 00000000 be006000                    ÿÿ......¾.`.


DBCC execution completed. If DBCC printed error messages, contact your system administrator.
