
PAGE: (1:3)


BUFFER:


BUF @0x00000278ECABB700

bpage = 0x00000278BE482000          bhash = 0x0000000000000000          bpageno = (1:3)
bdbid = 7                           breferences = 1                     bcputicks = 376
bsampleCount = 2                    bUse1 = 46743                       bstat = 0x9
blog = 0x15ab215a                   bnext = 0x0000000000000000          bDirtyContext = 0x0000000000000000
bstat2 = 0x0

PAGE HEADER:


Page @0x00000278BE482000

m_pageId = (1:3)                    m_headerVersion = 1                 m_type = 9
m_typeFlagBits = 0x0                m_level = 0                         m_flagBits = 0x0
m_objId (AllocUnitId.idObj) = 99    m_indexId (AllocUnitId.idInd) = 0   Metadata: AllocUnitId = 6488064
Metadata: PartitionId = 0           Metadata: IndexId = 0               Metadata: ObjectId = 99
m_prevPage = (0:0)                  m_nextPage = (0:0)                  pminlen = 90
m_slotCnt = 2                       m_freeCnt = 6                       m_freeData = 8182
m_reservedCnt = 0                   m_lsn = (34:992:29)                 m_xactReserved = 0
m_xdesId = (0:0)                    m_ghostRecCnt = 0                   m_tornBits = 674326750
DB Frag ID = 1

Allocation Status

GAM (1:2) = ALLOCATED               SGAM (1:3) = NOT ALLOCATED          PFS (1:1) = 0x44 ALLOCATED 100_PCT_FULL
DIFF (1:6) = CHANGED                ML (1:7) = NOT MIN_LOGGED

DATA:


Memory Dump @0x000000D9A77FA000

000000D9A77FA000:   01090000 00000000 00000000 00005a00 00000000  .	............Z.....
000000D9A77FA014:   00000200 63000000 0600f61f 03000000 01000000  ....c.....ö.........
000000D9A77FA028:   22000000 e0030000 1d000000 00000000 00000000  "...à...............
000000D9A77FA03C:   de683128 00000000 00000000 00000000 00000000  Þh1(................
000000D9A77FA050:   00000000 00000000 00000000 00000000 00005e00  ..................^.
000000D9A77FA064:   00000000 00000000 00000000 00000000 00000000  ....................
000000D9A77FA078:   00000000 00000000 00000000 00000000 00000000  ....................
000000D9A77FA08C:   00000000 00000000 00000000 00000000 00000000  ....................
000000D9A77FA0A0:   00000000 00000000 00000000 00000000 00000000  ....................
000000D9A77FA0B4:   00000000 00000000 00000000 381f30ce 9e460000  ............8.0ÎF..
000000D9A77FA0C8:   00000000 00000000 00000000 00000000 00000000  ....................
000000D9A77FA0DC:   00000000 00000000 00000000 00000000 00000000  ....................
000000D9A77FA0F0:   00000000 00000000 00000000 00000000 00000000  ....................
000000D9A77FA104:   00000000 00000000 00000000 00000000 00000000  ....................
000000D9A77FA118:   00000000 00000000 00000000 00000000 00000000  ....................
000000D9A77FA12C:   00000000 00000000 00000000 00000000 00000000  ....................
000000D9A77FA140:   00000000 00000000 00000000 00000000 00000000  ....................
000000D9A77FA154:   00000000 00000000 00000000 00000000 00000000  ....................
000000D9A77FA168:   00000000 00000000 00000000 00000000 00000000  ....................
000000D9A77FA17C:   00000000 00000000 00000000 00000000 00000000  ....................
000000D9A77FA190:   00000000 00000000 00000000 00000000 00000000  ....................
000000D9A77FA1A4:   00000000 00000000 00000000 00000000 00000000  ....................
000000D9A77FA1B8:   00000000 00000000 00000000 00000000 00000000  ....................
000000D9A77FA1CC:   00000000 00000000 00000000 00000000 00000000  ....................
000000D9A77FA1E0:   00000000 00000000 00000000 00000000 00000000  ....................
000000D9A77FA1F4:   00000000 00000000 00000000 00000000 00000000  ....................
000000D9A77FA208:   00000000 00000000 00000000 00000000 00000000  ....................
000000D9A77FA21C:   00000000 00000000 00000000 00000000 00000000  ....................
000000D9A77FA230:   00000000 00000000 00000000 00000000 00000000  ....................
000000D9A77FA244:   00000000 00000000 00000000 00000000 00000000  ....................
000000D9A77FA258:   00000000 00000000 00000000 00000000 00000000  ....................
000000D9A77FA26C:   00000000 00000000 00000000 00000000 00000000  ....................
000000D9A77FA280:   00000000 00000000 00000000 00000000 00000000  ....................
000000D9A77FA294:   00000000 00000000 00000000 00000000 00000000  ....................
000000D9A77FA2A8:   00000000 00000000 00000000 00000000 00000000  ....................
000000D9A77FA2BC:   00000000 00000000 00000000 00000000 00000000  ....................
000000D9A77FA2D0:   00000000 00000000 00000000 00000000 00000000  ....................
000000D9A77FA2E4:   00000000 00000000 00000000 00000000 00000000  ....................
000000D9A77FA2F8:   00000000 00000000 00000000 00000000 00000000  ....................
000000D9A77FA30C:   00000000 00000000 00000000 00000000 00000000  ....................
000000D9A77FA320:   00000000 00000000 00000000 00000000 00000000  ....................
000000D9A77FA334:   00000000 00000000 00000000 00000000 00000000  ....................
000000D9A77FA348:   00000000 00000000 00000000 00000000 00000000  ....................
000000D9A77FA35C:   00000000 00000000 00000000 00000000 00000000  ....................
000000D9A77FA370:   00000000 00000000 00000000 00000000 00000000  ....................
000000D9A77FA384:   00000000 00000000 00000000 00000000 00000000  ....................
000000D9A77FA398:   00000000 00000000 00000000 00000000 00000000  ....................
000000D9A77FA3AC:   00000000 00000000 00000000 00000000 00000000  ....................
000000D9A77FA3C0:   00000000 00000000 00000000 00000000 00000000  ....................
000000D9A77FA3D4:   00000000 00000000 00000000 00000000 00000000  ....................
000000D9A77FA3E8:   00000000 00000000 00000000 00000000 00000000  ....................
000000D9A77FA3FC:   00000000 00000000 00000000 00000000 00000000  ....................
000000D9A77FA410:   00000000 00000000 00000000 00000000 00000000  ....................
000000D9A77FA424:   00000000 00000000 00000000 00000000 00000000  ....................
000000D9A77FA438:   00000000 00000000 00000000 00000000 00000000  ....................
000000D9A77FA44C:   00000000 00000000 00000000 00000000 00000000  ....................
000000D9A77FA460:   00000000 00000000 00000000 00000000 00000000  ....................
000000D9A77FA474:   00000000 00000000 00000000 00000000 00000000  ....................
000000D9A77FA488:   00000000 00000000 00000000 00000000 00000000  ....................
000000D9A77FA49C:   00000000 00000000 00000000 00000000 00000000  ....................
000000D9A77FA4B0:   00000000 00000000 00000000 00000000 00000000  ....................
000000D9A77FA4C4:   00000000 00000000 00000000 00000000 00000000  ....................
000000D9A77FA4D8:   00000000 00000000 00000000 00000000 00000000  ....................
000000D9A77FA4EC:   00000000 00000000 00000000 00000000 00000000  ....................
000000D9A77FA500:   00000000 00000000 00000000 00000000 00000000  ....................
000000D9A77FA514:   00000000 00000000 00000000 00000000 00000000  ....................
000000D9A77FA528:   00000000 00000000 00000000 00000000 00000000  ....................
000000D9A77FA53C:   00000000 00000000 00000000 00000000 00000000  ....................
000000D9A77FA550:   00000000 00000000 00000000 00000000 00000000  ....................
000000D9A77FA564:   00000000 00000000 00000000 00000000 00000000  ....................
000000D9A77FA578:   00000000 00000000 00000000 00000000 00000000  ....................
000000D9A77FA58C:   00000000 00000000 00000000 00000000 00000000  ....................
000000D9A77FA5A0:   00000000 00000000 00000000 00000000 00000000  ....................
000000D9A77FA5B4:   00000000 00000000 00000000 00000000 00000000  ....................
000000D9A77FA5C8:   00000000 00000000 00000000 00000000 00000000  ....................
000000D9A77FA5DC:   00000000 00000000 00000000 00000000 00000000  ....................
000000D9A77FA5F0:   00000000 00000000 00000000 00000000 00000000  ....................
000000D9A77FA604:   00000000 00000000 00000000 00000000 00000000  ....................
000000D9A77FA618:   00000000 00000000 00000000 00000000 00000000  ....................
000000D9A77FA62C:   00000000 00000000 00000000 00000000 00000000  ....................
000000D9A77FA640:   00000000 00000000 00000000 00000000 00000000  ....................
000000D9A77FA654:   00000000 00000000 00000000 00000000 00000000  ....................
000000D9A77FA668:   00000000 00000000 00000000 00000000 00000000  ....................
000000D9A77FA67C:   00000000 00000000 00000000 00000000 00000000  ....................
000000D9A77FA690:   00000000 00000000 00000000 00000000 00000000  ....................
000000D9A77FA6A4:   00000000 00000000 00000000 00000000 00000000  ....................
000000D9A77FA6B8:   00000000 00000000 00000000 00000000 00000000  ....................
000000D9A77FA6CC:   00000000 00000000 00000000 00000000 00000000  ....................
000000D9A77FA6E0:   00000000 00000000 00000000 00000000 00000000  ....................
000000D9A77FA6F4:   00000000 00000000 00000000 00000000 00000000  ....................
000000D9A77FA708:   00000000 00000000 00000000 00000000 00000000  ....................
000000D9A77FA71C:   00000000 00000000 00000000 00000000 00000000  ....................
000000D9A77FA730:   00000000 00000000 00000000 00000000 00000000  ....................
000000D9A77FA744:   00000000 00000000 00000000 00000000 00000000  ....................
000000D9A77FA758:   00000000 00000000 00000000 00000000 00000000  ....................
000000D9A77FA76C:   00000000 00000000 00000000 00000000 00000000  ....................
000000D9A77FA780:   00000000 00000000 00000000 00000000 00000000  ....................
000000D9A77FA794:   00000000 00000000 00000000 00000000 00000000  ....................
000000D9A77FA7A8:   00000000 00000000 00000000 00000000 00000000  ....................
000000D9A77FA7BC:   00000000 00000000 00000000 00000000 00000000  ....................
000000D9A77FA7D0:   00000000 00000000 00000000 00000000 00000000  ....................
000000D9A77FA7E4:   00000000 00000000 00000000 00000000 00000000  ....................
000000D9A77FA7F8:   00000000 00000000 00000000 00000000 00000000  ....................
000000D9A77FA80C:   00000000 00000000 00000000 00000000 00000000  ....................
000000D9A77FA820:   00000000 00000000 00000000 00000000 00000000  ....................
000000D9A77FA834:   00000000 00000000 00000000 00000000 00000000  ....................
000000D9A77FA848:   00000000 00000000 00000000 00000000 00000000  ....................
000000D9A77FA85C:   00000000 00000000 00000000 00000000 00000000  ....................
000000D9A77FA870:   00000000 00000000 00000000 00000000 00000000  ....................
000000D9A77FA884:   00000000 00000000 00000000 00000000 00000000  ....................
000000D9A77FA898:   00000000 00000000 00000000 00000000 00000000  ....................
000000D9A77FA8AC:   00000000 00000000 00000000 00000000 00000000  ....................
000000D9A77FA8C0:   00000000 00000000 00000000 00000000 00000000  ....................
000000D9A77FA8D4:   00000000 00000000 00000000 00000000 00000000  ....................
000000D9A77FA8E8:   00000000 00000000 00000000 00000000 00000000  ....................
000000D9A77FA8FC:   00000000 00000000 00000000 00000000 00000000  ....................
000000D9A77FA910:   00000000 00000000 00000000 00000000 00000000  ....................
000000D9A77FA924:   00000000 00000000 00000000 00000000 00000000  ....................
000000D9A77FA938:   00000000 00000000 00000000 00000000 00000000  ....................
000000D9A77FA94C:   00000000 00000000 00000000 00000000 00000000  ....................
000000D9A77FA960:   00000000 00000000 00000000 00000000 00000000  ....................
000000D9A77FA974:   00000000 00000000 00000000 00000000 00000000  ....................
000000D9A77FA988:   00000000 00000000 00000000 00000000 00000000  ....................
000000D9A77FA99C:   00000000 00000000 00000000 00000000 00000000  ....................
000000D9A77FA9B0:   00000000 00000000 00000000 00000000 00000000  ....................
000000D9A77FA9C4:   00000000 00000000 00000000 00000000 00000000  ....................
000000D9A77FA9D8:   00000000 00000000 00000000 00000000 00000000  ....................
000000D9A77FA9EC:   00000000 00000000 00000000 00000000 00000000  ....................
000000D9A77FAA00:   00000000 00000000 00000000 00000000 00000000  ....................
000000D9A77FAA14:   00000000 00000000 00000000 00000000 00000000  ....................
000000D9A77FAA28:   00000000 00000000 00000000 00000000 00000000  ....................
000000D9A77FAA3C:   00000000 00000000 00000000 00000000 00000000  ....................
000000D9A77FAA50:   00000000 00000000 00000000 00000000 00000000  ....................
000000D9A77FAA64:   00000000 00000000 00000000 00000000 00000000  ....................
000000D9A77FAA78:   00000000 00000000 00000000 00000000 00000000  ....................
000000D9A77FAA8C:   00000000 00000000 00000000 00000000 00000000  ....................
000000D9A77FAAA0:   00000000 00000000 00000000 00000000 00000000  ....................
000000D9A77FAAB4:   00000000 00000000 00000000 00000000 00000000  ....................
000000D9A77FAAC8:   00000000 00000000 00000000 00000000 00000000  ....................
000000D9A77FAADC:   00000000 00000000 00000000 00000000 00000000  ....................
000000D9A77FAAF0:   00000000 00000000 00000000 00000000 00000000  ....................
000000D9A77FAB04:   00000000 00000000 00000000 00000000 00000000  ....................
000000D9A77FAB18:   00000000 00000000 00000000 00000000 00000000  ....................
000000D9A77FAB2C:   00000000 00000000 00000000 00000000 00000000  ....................
000000D9A77FAB40:   00000000 00000000 00000000 00000000 00000000  ....................
000000D9A77FAB54:   00000000 00000000 00000000 00000000 00000000  ....................
000000D9A77FAB68:   00000000 00000000 00000000 00000000 00000000  ....................
000000D9A77FAB7C:   00000000 00000000 00000000 00000000 00000000  ....................
000000D9A77FAB90:   00000000 00000000 00000000 00000000 00000000  ....................
000000D9A77FABA4:   00000000 00000000 00000000 00000000 00000000  ....................
000000D9A77FABB8:   00000000 00000000 00000000 00000000 00000000  ....................
000000D9A77FABCC:   00000000 00000000 00000000 00000000 00000000  ....................
000000D9A77FABE0:   00000000 00000000 00000000 00000000 00000000  ....................
000000D9A77FABF4:   00000000 00000000 00000000 00000000 00000000  ....................
000000D9A77FAC08:   00000000 00000000 00000000 00000000 00000000  ....................
000000D9A77FAC1C:   00000000 00000000 00000000 00000000 00000000  ....................
000000D9A77FAC30:   00000000 00000000 00000000 00000000 00000000  ....................
000000D9A77FAC44:   00000000 00000000 00000000 00000000 00000000  ....................
000000D9A77FAC58:   00000000 00000000 00000000 00000000 00000000  ....................
000000D9A77FAC6C:   00000000 00000000 00000000 00000000 00000000  ....................
000000D9A77FAC80:   00000000 00000000 00000000 00000000 00000000  ....................
000000D9A77FAC94:   00000000 00000000 00000000 00000000 00000000  ....................
000000D9A77FACA8:   00000000 00000000 00000000 00000000 00000000  ....................
000000D9A77FACBC:   00000000 00000000 00000000 00000000 00000000  ....................
000000D9A77FACD0:   00000000 00000000 00000000 00000000 00000000  ....................
000000D9A77FACE4:   00000000 00000000 00000000 00000000 00000000  ....................
000000D9A77FACF8:   00000000 00000000 00000000 00000000 00000000  ....................
000000D9A77FAD0C:   00000000 00000000 00000000 00000000 00000000  ....................
000000D9A77FAD20:   00000000 00000000 00000000 00000000 00000000  ....................
000000D9A77FAD34:   00000000 00000000 00000000 00000000 00000000  ....................
000000D9A77FAD48:   00000000 00000000 00000000 00000000 00000000  ....................
000000D9A77FAD5C:   00000000 00000000 00000000 00000000 00000000  ....................
000000D9A77FAD70:   00000000 00000000 00000000 00000000 00000000  ....................
000000D9A77FAD84:   00000000 00000000 00000000 00000000 00000000  ....................
000000D9A77FAD98:   00000000 00000000 00000000 00000000 00000000  ....................
000000D9A77FADAC:   00000000 00000000 00000000 00000000 00000000  ....................
000000D9A77FADC0:   00000000 00000000 00000000 00000000 00000000  ....................
000000D9A77FADD4:   00000000 00000000 00000000 00000000 00000000  ....................
000000D9A77FADE8:   00000000 00000000 00000000 00000000 00000000  ....................
000000D9A77FADFC:   00000000 00000000 00000000 00000000 00000000  ....................
000000D9A77FAE10:   00000000 00000000 00000000 00000000 00000000  ....................
000000D9A77FAE24:   00000000 00000000 00000000 00000000 00000000  ....................
000000D9A77FAE38:   00000000 00000000 00000000 00000000 00000000  ....................
000000D9A77FAE4C:   00000000 00000000 00000000 00000000 00000000  ....................
000000D9A77FAE60:   00000000 00000000 00000000 00000000 00000000  ....................
000000D9A77FAE74:   00000000 00000000 00000000 00000000 00000000  ....................
000000D9A77FAE88:   00000000 00000000 00000000 00000000 00000000  ....................
000000D9A77FAE9C:   00000000 00000000 00000000 00000000 00000000  ....................
000000D9A77FAEB0:   00000000 00000000 00000000 00000000 00000000  ....................
000000D9A77FAEC4:   00000000 00000000 00000000 00000000 00000000  ....................
000000D9A77FAED8:   00000000 00000000 00000000 00000000 00000000  ....................
000000D9A77FAEEC:   00000000 00000000 00000000 00000000 00000000  ....................
000000D9A77FAF00:   00000000 00000000 00000000 00000000 00000000  ....................
000000D9A77FAF14:   00000000 00000000 00000000 00000000 00000000  ....................
000000D9A77FAF28:   00000000 00000000 00000000 00000000 00000000  ....................
000000D9A77FAF3C:   00000000 00000000 00000000 00000000 00000000  ....................
000000D9A77FAF50:   00000000 00000000 00000000 00000000 00000000  ....................
000000D9A77FAF64:   00000000 00000000 00000000 00000000 00000000  ....................
000000D9A77FAF78:   00000000 00000000 00000000 00000000 00000000  ....................
000000D9A77FAF8C:   00000000 00000000 00000000 00000000 00000000  ....................
000000D9A77FAFA0:   00000000 00000000 00000000 00000000 00000000  ....................
000000D9A77FAFB4:   00000000 00000000 00000000 00000000 00000000  ....................
000000D9A77FAFC8:   00000000 00000000 00000000 00000000 00000000  ....................
000000D9A77FAFDC:   00000000 00000000 00000000 00000000 00000000  ....................
000000D9A77FAFF0:   00000000 00000000 00000000 00000000 00000000  ....................
000000D9A77FB004:   00000000 00000000 00000000 00000000 00000000  ....................
000000D9A77FB018:   00000000 00000000 00000000 00000000 00000000  ....................
000000D9A77FB02C:   00000000 00000000 00000000 00000000 00000000  ....................
000000D9A77FB040:   00000000 00000000 00000000 00000000 00000000  ....................
000000D9A77FB054:   00000000 00000000 00000000 00000000 00000000  ....................
000000D9A77FB068:   00000000 00000000 00000000 00000000 00000000  ....................
000000D9A77FB07C:   00000000 00000000 00000000 00000000 00000000  ....................
000000D9A77FB090:   00000000 00000000 00000000 00000000 00000000  ....................
000000D9A77FB0A4:   00000000 00000000 00000000 00000000 00000000  ....................
000000D9A77FB0B8:   00000000 00000000 00000000 00000000 00000000  ....................
000000D9A77FB0CC:   00000000 00000000 00000000 00000000 00000000  ....................
000000D9A77FB0E0:   00000000 00000000 00000000 00000000 00000000  ....................
000000D9A77FB0F4:   00000000 00000000 00000000 00000000 00000000  ....................
000000D9A77FB108:   00000000 00000000 00000000 00000000 00000000  ....................
000000D9A77FB11C:   00000000 00000000 00000000 00000000 00000000  ....................
000000D9A77FB130:   00000000 00000000 00000000 00000000 00000000  ....................
000000D9A77FB144:   00000000 00000000 00000000 00000000 00000000  ....................
000000D9A77FB158:   00000000 00000000 00000000 00000000 00000000  ....................
000000D9A77FB16C:   00000000 00000000 00000000 00000000 00000000  ....................
000000D9A77FB180:   00000000 00000000 00000000 00000000 00000000  ....................
000000D9A77FB194:   00000000 00000000 00000000 00000000 00000000  ....................
000000D9A77FB1A8:   00000000 00000000 00000000 00000000 00000000  ....................
000000D9A77FB1BC:   00000000 00000000 00000000 00000000 00000000  ....................
000000D9A77FB1D0:   00000000 00000000 00000000 00000000 00000000  ....................
000000D9A77FB1E4:   00000000 00000000 00000000 00000000 00000000  ....................
000000D9A77FB1F8:   00000000 00000000 00000000 00000000 00000000  ....................
000000D9A77FB20C:   00000000 00000000 00000000 00000000 00000000  ....................
000000D9A77FB220:   00000000 00000000 00000000 00000000 00000000  ....................
000000D9A77FB234:   00000000 00000000 00000000 00000000 00000000  ....................
000000D9A77FB248:   00000000 00000000 00000000 00000000 00000000  ....................
000000D9A77FB25C:   00000000 00000000 00000000 00000000 00000000  ....................
000000D9A77FB270:   00000000 00000000 00000000 00000000 00000000  ....................
000000D9A77FB284:   00000000 00000000 00000000 00000000 00000000  ....................
000000D9A77FB298:   00000000 00000000 00000000 00000000 00000000  ....................
000000D9A77FB2AC:   00000000 00000000 00000000 00000000 00000000  ....................
000000D9A77FB2C0:   00000000 00000000 00000000 00000000 00000000  ....................
000000D9A77FB2D4:   00000000 00000000 00000000 00000000 00000000  ....................
000000D9A77FB2E8:   00000000 00000000 00000000 00000000 00000000  ....................
000000D9A77FB2FC:   00000000 00000000 00000000 00000000 00000000  ....................
000000D9A77FB310:   00000000 00000000 00000000 00000000 00000000  ....................
000000D9A77FB324:   00000000 00000000 00000000 00000000 00000000  ....................
000000D9A77FB338:   00000000 00000000 00000000 00000000 00000000  ....................
000000D9A77FB34C:   00000000 00000000 00000000 00000000 00000000  ....................
000000D9A77FB360:   00000000 00000000 00000000 00000000 00000000  ....................
000000D9A77FB374:   00000000 00000000 00000000 00000000 00000000  ....................
000000D9A77FB388:   00000000 00000000 00000000 00000000 00000000  ....................
000000D9A77FB39C:   00000000 00000000 00000000 00000000 00000000  ....................
000000D9A77FB3B0:   00000000 00000000 00000000 00000000 00000000  ....................
000000D9A77FB3C4:   00000000 00000000 00000000 00000000 00000000  ....................
000000D9A77FB3D8:   00000000 00000000 00000000 00000000 00000000  ....................
000000D9A77FB3EC:   00000000 00000000 00000000 00000000 00000000  ....................
000000D9A77FB400:   00000000 00000000 00000000 00000000 00000000  ....................
000000D9A77FB414:   00000000 00000000 00000000 00000000 00000000  ....................
000000D9A77FB428:   00000000 00000000 00000000 00000000 00000000  ....................
000000D9A77FB43C:   00000000 00000000 00000000 00000000 00000000  ....................
000000D9A77FB450:   00000000 00000000 00000000 00000000 00000000  ....................
000000D9A77FB464:   00000000 00000000 00000000 00000000 00000000  ....................
000000D9A77FB478:   00000000 00000000 00000000 00000000 00000000  ....................
000000D9A77FB48C:   00000000 00000000 00000000 00000000 00000000  ....................
000000D9A77FB4A0:   00000000 00000000 00000000 00000000 00000000  ....................
000000D9A77FB4B4:   00000000 00000000 00000000 00000000 00000000  ....................
000000D9A77FB4C8:   00000000 00000000 00000000 00000000 00000000  ....................
000000D9A77FB4DC:   00000000 00000000 00000000 00000000 00000000  ....................
000000D9A77FB4F0:   00000000 00000000 00000000 00000000 00000000  ....................
000000D9A77FB504:   00000000 00000000 00000000 00000000 00000000  ....................
000000D9A77FB518:   00000000 00000000 00000000 00000000 00000000  ....................
000000D9A77FB52C:   00000000 00000000 00000000 00000000 00000000  ....................
000000D9A77FB540:   00000000 00000000 00000000 00000000 00000000  ....................
000000D9A77FB554:   00000000 00000000 00000000 00000000 00000000  ....................
000000D9A77FB568:   00000000 00000000 00000000 00000000 00000000  ....................
000000D9A77FB57C:   00000000 00000000 00000000 00000000 00000000  ....................
000000D9A77FB590:   00000000 00000000 00000000 00000000 00000000  ....................
000000D9A77FB5A4:   00000000 00000000 00000000 00000000 00000000  ....................
000000D9A77FB5B8:   00000000 00000000 00000000 00000000 00000000  ....................
000000D9A77FB5CC:   00000000 00000000 00000000 00000000 00000000  ....................
000000D9A77FB5E0:   00000000 00000000 00000000 00000000 00000000  ....................
000000D9A77FB5F4:   00000000 00000000 00000000 00000000 00000000  ....................
000000D9A77FB608:   00000000 00000000 00000000 00000000 00000000  ....................
000000D9A77FB61C:   00000000 00000000 00000000 00000000 00000000  ....................
000000D9A77FB630:   00000000 00000000 00000000 00000000 00000000  ....................
000000D9A77FB644:   00000000 00000000 00000000 00000000 00000000  ....................
000000D9A77FB658:   00000000 00000000 00000000 00000000 00000000  ....................
000000D9A77FB66C:   00000000 00000000 00000000 00000000 00000000  ....................
000000D9A77FB680:   00000000 00000000 00000000 00000000 00000000  ....................
000000D9A77FB694:   00000000 00000000 00000000 00000000 00000000  ....................
000000D9A77FB6A8:   00000000 00000000 00000000 00000000 00000000  ....................
000000D9A77FB6BC:   00000000 00000000 00000000 00000000 00000000  ....................
000000D9A77FB6D0:   00000000 00000000 00000000 00000000 00000000  ....................
000000D9A77FB6E4:   00000000 00000000 00000000 00000000 00000000  ....................
000000D9A77FB6F8:   00000000 00000000 00000000 00000000 00000000  ....................
000000D9A77FB70C:   00000000 00000000 00000000 00000000 00000000  ....................
000000D9A77FB720:   00000000 00000000 00000000 00000000 00000000  ....................
000000D9A77FB734:   00000000 00000000 00000000 00000000 00000000  ....................
000000D9A77FB748:   00000000 00000000 00000000 00000000 00000000  ....................
000000D9A77FB75C:   00000000 00000000 00000000 00000000 00000000  ....................
000000D9A77FB770:   00000000 00000000 00000000 00000000 00000000  ....................
000000D9A77FB784:   00000000 00000000 00000000 00000000 00000000  ....................
000000D9A77FB798:   00000000 00000000 00000000 00000000 00000000  ....................
000000D9A77FB7AC:   00000000 00000000 00000000 00000000 00000000  ....................
000000D9A77FB7C0:   00000000 00000000 00000000 00000000 00000000  ....................
000000D9A77FB7D4:   00000000 00000000 00000000 00000000 00000000  ....................
000000D9A77FB7E8:   00000000 00000000 00000000 00000000 00000000  ....................
000000D9A77FB7FC:   00000000 00000000 00000000 00000000 00000000  ....................
000000D9A77FB810:   00000000 00000000 00000000 00000000 00000000  ....................
000000D9A77FB824:   00000000 00000000 00000000 00000000 00000000  ....................
000000D9A77FB838:   00000000 00000000 00000000 00000000 00000000  ....................
000000D9A77FB84C:   00000000 00000000 00000000 00000000 00000000  ....................
000000D9A77FB860:   00000000 00000000 00000000 00000000 00000000  ....................
000000D9A77FB874:   00000000 00000000 00000000 00000000 00000000  ....................
000000D9A77FB888:   00000000 00000000 00000000 00000000 00000000  ....................
000000D9A77FB89C:   00000000 00000000 00000000 00000000 00000000  ....................
000000D9A77FB8B0:   00000000 00000000 00000000 00000000 00000000  ....................
000000D9A77FB8C4:   00000000 00000000 00000000 00000000 00000000  ....................
000000D9A77FB8D8:   00000000 00000000 00000000 00000000 00000000  ....................
000000D9A77FB8EC:   00000000 00000000 00000000 00000000 00000000  ....................
000000D9A77FB900:   00000000 00000000 00000000 00000000 00000000  ....................
000000D9A77FB914:   00000000 00000000 00000000 00000000 00000000  ....................
000000D9A77FB928:   00000000 00000000 00000000 00000000 00000000  ....................
000000D9A77FB93C:   00000000 00000000 00000000 00000000 00000000  ....................
000000D9A77FB950:   00000000 00000000 00000000 00000000 00000000  ....................
000000D9A77FB964:   00000000 00000000 00000000 00000000 00000000  ....................
000000D9A77FB978:   00000000 00000000 00000000 00000000 00000000  ....................
000000D9A77FB98C:   00000000 00000000 00000000 00000000 00000000  ....................
000000D9A77FB9A0:   00000000 00000000 00000000 00000000 00000000  ....................
000000D9A77FB9B4:   00000000 00000000 00000000 00000000 00000000  ....................
000000D9A77FB9C8:   00000000 00000000 00000000 00000000 00000000  ....................
000000D9A77FB9DC:   00000000 00000000 00000000 00000000 00000000  ....................
000000D9A77FB9F0:   00000000 00000000 00000000 00000000 00000000  ....................
000000D9A77FBA04:   00000000 00000000 00000000 00000000 00000000  ....................
000000D9A77FBA18:   00000000 00000000 00000000 00000000 00000000  ....................
000000D9A77FBA2C:   00000000 00000000 00000000 00000000 00000000  ....................
000000D9A77FBA40:   00000000 00000000 00000000 00000000 00000000  ....................
000000D9A77FBA54:   00000000 00000000 00000000 00000000 00000000  ....................
000000D9A77FBA68:   00000000 00000000 00000000 00000000 00000000  ....................
000000D9A77FBA7C:   00000000 00000000 00000000 00000000 00000000  ....................
000000D9A77FBA90:   00000000 00000000 00000000 00000000 00000000  ....................
000000D9A77FBAA4:   00000000 00000000 00000000 00000000 00000000  ....................
000000D9A77FBAB8:   00000000 00000000 00000000 00000000 00000000  ....................
000000D9A77FBACC:   00000000 00000000 00000000 00000000 00000000  ....................
000000D9A77FBAE0:   00000000 00000000 00000000 00000000 00000000  ....................
000000D9A77FBAF4:   00000000 00000000 00000000 00000000 00000000  ....................
000000D9A77FBB08:   00000000 00000000 00000000 00000000 00000000  ....................
000000D9A77FBB1C:   00000000 00000000 00000000 00000000 00000000  ....................
000000D9A77FBB30:   00000000 00000000 00000000 00000000 00000000  ....................
000000D9A77FBB44:   00000000 00000000 00000000 00000000 00000000  ....................
000000D9A77FBB58:   00000000 00000000 00000000 00000000 00000000  ....................
000000D9A77FBB6C:   00000000 00000000 00000000 00000000 00000000  ....................
000000D9A77FBB80:   00000000 00000000 00000000 00000000 00000000  ....................
000000D9A77FBB94:   00000000 00000000 00000000 00000000 00000000  ....................
000000D9A77FBBA8:   00000000 00000000 00000000 00000000 00000000  ....................
000000D9A77FBBBC:   00000000 00000000 00000000 00000000 00000000  ....................
000000D9A77FBBD0:   00000000 00000000 00000000 00000000 00000000  ....................
000000D9A77FBBE4:   00000000 00000000 00000000 00000000 00000000  ....................
000000D9A77FBBF8:   00000000 00000000 00000000 00000000 00000000  ....................
000000D9A77FBC0C:   00000000 00000000 00000000 00000000 00000000  ....................
000000D9A77FBC20:   00000000 00000000 00000000 00000000 00000000  ....................
000000D9A77FBC34:   00000000 00000000 00000000 00000000 00000000  ....................
000000D9A77FBC48:   00000000 00000000 00000000 00000000 00000000  ....................
000000D9A77FBC5C:   00000000 00000000 00000000 00000000 00000000  ....................
000000D9A77FBC70:   00000000 00000000 00000000 00000000 00000000  ....................
000000D9A77FBC84:   00000000 00000000 00000000 00000000 00000000  ....................
000000D9A77FBC98:   00000000 00000000 00000000 00000000 00000000  ....................
000000D9A77FBCAC:   00000000 00000000 00000000 00000000 00000000  ....................
000000D9A77FBCC0:   00000000 00000000 00000000 00000000 00000000  ....................
000000D9A77FBCD4:   00000000 00000000 00000000 00000000 00000000  ....................
000000D9A77FBCE8:   00000000 00000000 00000000 00000000 00000000  ....................
000000D9A77FBCFC:   00000000 00000000 00000000 00000000 00000000  ....................
000000D9A77FBD10:   00000000 00000000 00000000 00000000 00000000  ....................
000000D9A77FBD24:   00000000 00000000 00000000 00000000 00000000  ....................
000000D9A77FBD38:   00000000 00000000 00000000 00000000 00000000  ....................
000000D9A77FBD4C:   00000000 00000000 00000000 00000000 00000000  ....................
000000D9A77FBD60:   00000000 00000000 00000000 00000000 00000000  ....................
000000D9A77FBD74:   00000000 00000000 00000000 00000000 00000000  ....................
000000D9A77FBD88:   00000000 00000000 00000000 00000000 00000000  ....................
000000D9A77FBD9C:   00000000 00000000 00000000 00000000 00000000  ....................
000000D9A77FBDB0:   00000000 00000000 00000000 00000000 00000000  ....................
000000D9A77FBDC4:   00000000 00000000 00000000 00000000 00000000  ....................
000000D9A77FBDD8:   00000000 00000000 00000000 00000000 00000000  ....................
000000D9A77FBDEC:   00000000 00000000 00000000 00000000 00000000  ....................
000000D9A77FBE00:   00000000 00000000 00000000 00000000 00000000  ....................
000000D9A77FBE14:   00000000 00000000 00000000 00000000 00000000  ....................
000000D9A77FBE28:   00000000 00000000 00000000 00000000 00000000  ....................
000000D9A77FBE3C:   00000000 00000000 00000000 00000000 00000000  ....................
000000D9A77FBE50:   00000000 00000000 00000000 00000000 00000000  ....................
000000D9A77FBE64:   00000000 00000000 00000000 00000000 00000000  ....................
000000D9A77FBE78:   00000000 00000000 00000000 00000000 00000000  ....................
000000D9A77FBE8C:   00000000 00000000 00000000 00000000 00000000  ....................
000000D9A77FBEA0:   00000000 00000000 00000000 00000000 00000000  ....................
000000D9A77FBEB4:   00000000 00000000 00000000 00000000 00000000  ....................
000000D9A77FBEC8:   00000000 00000000 00000000 00000000 00000000  ....................
000000D9A77FBEDC:   00000000 00000000 00000000 00000000 00000000  ....................
000000D9A77FBEF0:   00000000 00000000 00000000 00000000 00000000  ....................
000000D9A77FBF04:   00000000 00000000 00000000 00000000 00000000  ....................
000000D9A77FBF18:   00000000 00000000 00000000 00000000 00000000  ....................
000000D9A77FBF2C:   00000000 00000000 00000000 00000000 00000000  ....................
000000D9A77FBF40:   00000000 00000000 00000000 00000000 00000000  ....................
000000D9A77FBF54:   00000000 00000000 00000000 00000000 00000000  ....................
000000D9A77FBF68:   00000000 00000000 00000000 00000000 00000000  ....................
000000D9A77FBF7C:   00000000 00000000 00000000 00000000 00000000  ....................
000000D9A77FBF90:   00000000 00000000 00000000 00000000 00000000  ....................
000000D9A77FBFA4:   00000000 00000000 00000000 00000000 00000000  ....................
000000D9A77FBFB8:   00000000 00000000 00000000 00000000 00000000  ....................
000000D9A77FBFCC:   00000000 00000000 00000000 00000000 00000000  ....................
000000D9A77FBFE0:   00000000 00000000 00000000 00000000 00000000  ....................
000000D9A77FBFF4:   00000000 00000000 be006000                    ........¾.`.


DBCC execution completed. If DBCC printed error messages, contact your system administrator.
